:100000000C9466010C9497010C9497010C94970141
:100010000C9497010C9497010C9497010C94970100
:100020000C9497010C9497010C9497010C949701F0
:100030000C9497010C9497010C9497010C949701E0
:100040000C9497010C9497010C9497010C949701D0
:100050000C9497010C9497010C9497010C940A034B
:100060000C9497010C94F6050C94C2060C9497011D
:100070000C9497010C9497010C9497010C949701A0
:100080000C9497010C9497010C9497010C94970190
:100090000C9429060C9401070C9497010C94970179
:1000A0000C9497010C9497010C9497010C94970170
:1000B0000C9497010C9497010C9497010C94970160
:1000C0000C9497010C9497010C9497010C945C0686
:1000D0000C9440070C9497010C948F060C947F07A6
:1000E0000C9497018302860289028C0296029D027B
:1000F000A402AB02B802CE02CE02CE02CE02CE02E3
:10010000CE02CE02CE02CE02CE02CE02CE02CE026F
:10011000CE02CE02CE02CE02BF02CD03D003C30375
:10012000C7030704D403D803DE03E203E603EC03AA
:10013000F003F4030704FA03FE0302040C94EC0337
:100140000C94DE030C94BF020C9483020C94F40311
:100150000C9496020C94FE030C9407040C94740403
:100160000C94AB020C9446080C94D0030C949A05A2
:100170000C94FA030C9402040C94E6030C94C70349
:100180000C9443050C94E2030C9486020C94B80280
:100190000C9453050C946F050C94D4030C949D029D
:1001A0000C9489020C94A4020C94D8030C94CD03F3
:1001B0000C94C3030C948C020C948F050C94CE0207
:1001C0000C94F0030000090A02080B0C0D0706034B
:1001D000040100000000000000000000000000001A
:1001E000000000000000000000000000000000000F
:1001F00011100F00000000000000000000000000CF
:100200000000000000000000000001021020200893
:100210000810204010204080020102010804020161
:1002200001020408102040808040201008040201D0
:100230008004020180402010080402010804020129
:1002400001020408102040800102040810204080B0
:1002500005050505070508080808020202020A0A42
:100260000808040404040101010101010101030360
:10027000030303030303040707070C0C0C0C0C0C0B
:100280000C0C0202020206060606060606060B0B08
:100290000B0B0B0B0B0B00002200250028002B0082
:1002A0002E003100340002010000050108010B019D
:1002B00000002100240027002A002D003000330018
:1002C00001010000040107010A01460811241FBEB4
:1002D000CFEFD1E2DEBFCDBF00E00CBF12E0A0E067
:1002E000B2E0E6E0F3E100E00BBF02C007900D9240
:1002F000AE37B107D9F725E0AEE7B2E001C01D92F5
:10030000AF32B207E1F711E0C6E6D1E000E006C087
:1003100021970109802FFE010E947909C536D10776
:1003200080E00807A9F70E94D9020C943F090C94B9
:100330000000CF92DF92EF92FF920F931F93CF9323
:10034000DF937C016C01C0E0D0E08B01015011090A
:10035000C017D1076CF48DEE92E00E944305181689
:100360001906B4F78DEE92E00E946F058D3061F4AE
:10037000CE0DDF1D1882DF91CF911F910F91FF905D
:10038000EF90DF90CF900895F60181936F01219651
:10039000DFCFCF93DF93CDB7DEB7A0970FB6F8943A
:1003A000DEBF0FBECDBF60E270E0CE0101960E94BD
:1003B0009901CE0101960E941809A0960FB6F894F3
:1003C000DEBF0FBECDBFDF91CF9108950F931F9376
:1003D000CF93DF938C010E94540340E855E260E024
:1003E00070E08DEE92E00E94BE07E801065F1F4FAD
:1003F0008881229661E00E940804C017D107C1F7E6
:10040000DF91CF911F910F910895CF92DF92EF92DC
:10041000FF926B017C018AE1C816D104E104F1046A
:1004200009F56AE072E08DEE92E00E94B1042AE0E4
:1004300030E04AE150E060E070E08DEE92E00E9432
:1004400036056CE172E08DEE92E00E94CE0422E06F
:1004500030E04AE150E060E070E08DEE92E00E9412
:10046000360514C062E372E08DEE92E00E94B104A2
:100470002AE030E0B701A6018DEE92E00E94360539
:1004800066E472E08DEE92E00E94B1048DEE92E09F
:10049000FF90EF90DF90CF900C94BA04EF92FF9210
:1004A0000F931F93CF93DF93EC018B017C018AE0C4
:1004B000E80EF11C68812296F80180810E5F1F4FC3
:1004C0000E944404CE15DF05A9F7DF91CF911F915B
:1004D0000F91FF90EF900895CF93DF93DA01EA0137
:1004E0009A01265F3F4F19921992C217D307D9F785
:1004F0006B31710508F052C0FB018827EE58FF4FA1
:100500008F4F0C9479091D921C9250C081E090E0AD
:100510002CC081E090E005C081E090E011969C93B2
:100520008E9313969C938E93129740C081E090E037
:1005300015969C938E93149739C081E090E01596A0
:100540009C938E93149711C081E090E015969C9334
:100550008E931497E6CF81E090E015969C938E934E
:10056000149713969C938E9312978D939C931EC011
:1005700081E090E017969C938E93169717C081E0C8
:1005800090E013969C938E93129717969C938E935C
:10059000169719969C938E93189708C065E572E09C
:1005A0008DEE92E0DF91CF910C94CE04DF91CF914C
:1005B0000895CF93DF93CDB7DEB764970FB6F89465
:1005C000DEBF0FBECDBF8AE08E01055F1F4FF80171
:1005D000982F11929A95E9F7E0E0F2E0DE0111968A
:1005E00001900D928A95E1F7CE0101960E94E601F5
:1005F0000E94C9016B017C010E940502A801C7018C
:10060000B6010E946C02BE016F5F7F4FC8010E945D
:100610004E02EECF1F920F920FB60F9211242F931E
:100620003F938F939F93AF93BF9380917F0290915D
:100630008002A0918102B091820230917E0223E07B
:10064000230F2D3720F40196A11DB11D05C026E80A
:10065000230F0296A11DB11D20937E0280937F027D
:1006600090938002A0938102B093820280918302D2
:1006700090918402A0918502B09186020196A11DFD
:10068000B11D8093830290938402A0938502B0935E
:100690008602BF91AF919F918F913F912F910F90C3
:1006A0000FBE0F901F901895789484B5826084BD1A
:1006B00084B5816084BD85B5826085BD85B5816066
:1006C00085BDEEE6F0E0808181608083E1E8F0E0C6
:1006D0001082808182608083808181608083E0E8F5
:1006E000F0E0808181608083E1EBF0E080818460D4
:1006F0008083E0EBF0E0808181608083E1E9F0E0DD
:10070000808182608083808181608083E0E9F0E085
:10071000808181608083E1EAF0E080818260808373
:10072000808181608083E0EAF0E080818160808365
:10073000E1E2F1E08081826080838081816080835A
:10074000E0E2F1E0808181608083EAE7F0E080818F
:1007500084608083808182608083808181608083E7
:100760008081806880831092C100089590E0FC0130
:100770003197E131F10508F04AC08827E357FF4F70
:100780008F4F0C947909809180008F7703C08091FE
:1007900080008F7D80938000089584B58F7702C09C
:1007A00084B58F7D84BD08958091B0008F7703C09C
:1007B0008091B0008F7D8093B0000895809190006B
:1007C0008F7707C0809190008F7D03C0809190004B
:1007D000877F8093900008958091A0008F7707C055
:1007E0008091A0008F7D03C08091A000877F8093BF
:1007F000A0000895809120018F7707C0809120018B
:100800008F7D03C080912001877F80932001089510
:10081000CF93DF9390E0FC01E65FFD4F2491FC0154
:10082000E05BFD4F8491882361F190E0880F991F70
:10083000FC01E055FD4FC591D491FC01EA56FD4FF6
:10084000A591B491611109C09FB7F8948881209552
:1008500082238883EC912E230BC0623061F49FB712
:10086000F8943881822F809583238883EC912E2BF6
:100870002C939FBF06C08FB7F894E8812E2B288356
:100880008FBFDF91CF9108951F93CF93DF93282FD0
:1008900030E0F901EC53FE4F8491F901E65FFD4F22
:1008A000D491F901E05BFD4FC491CC23C9F0162F20
:1008B00081110E94B603EC2FF0E0EE0FFF1FEA5605
:1008C000FD4FA591B4918FB7F894111105C09C917B
:1008D000ED2FE095E92302C0EC91ED2BEC938FBF57
:1008E000DF91CF911F910895CF92DF92EF92FF9207
:1008F0000F931F93CF93DF936C01EB017B01E40E09
:10090000F51E00E010E0CE15DF0561F06991D6011B
:10091000ED91FC910190F081E02DC6011995080F31
:10092000191FF1CFC801DF91CF911F910F91FF9057
:10093000EF90DF90CF9008956115710579F0FB017C
:1009400001900020E9F73197AF01461B570BDC01FE
:10095000ED91FC910280F381E02D199480E090E00C
:1009600008950C949C04DC01ED91FC910190F081C0
:10097000E02D19940F931F93CF93DF93EC016DE05B
:100980000E94B3048C016AE0CE010E94B304800F80
:10099000911FDF91CF911F910F9108950F931F9396
:1009A000CF93DF93EC010E949C048C01CE010E9446
:1009B000BA04800F911FDF91CF911F910F9108957D
:1009C0008F929F92AF92BF92CF92DF92EF92FF925F
:1009D0000F931F93CF93DF93CDB7DEB7A1970FB6D9
:1009E000F894DEBF0FBECDBF6C01142FE52FCB01F5
:1009F000022F19A2223008F40AE07E0121E2E20E61
:100A0000F11C802E912CA12CB12C612F7E2FA501E1
:100A100094010E945709029F1019112481E0E81ADD
:100A2000F1081A3014F4105D01C0195CF70110834D
:100A3000122FE32FCA01232B242B252B31F7B701CB
:100A4000C6010E949C04A1960FB6F894DEBF0FBEAB
:100A5000CDBFDF91CF911F910F91FF90EF90DF906D
:100A6000CF90BF90AF909F908F9008952115310542
:100A700041F4DC01ED91FC910190F081E02D642FB7
:100A800019940C94E004FC0124853585F901E05C9F
:100A9000FF4F80819181329620813181821B930B9F
:100AA0008F7399270895DC011C96ED91FC911D9799
:100AB000DF01A05CBF4F2D913C91119712968D9153
:100AC0009C9111972817390739F08D919C91E80F67
:100AD000F91F808190E008958FEF9FEF0895FC014A
:100AE000A485B585FD01E05CFF4F20813181329600
:100AF000808191812817390779F080819181A80F31
:100B0000B91F8C91208131812F5F3F4F2F73332785
:100B10003183208390E008958FEF9FEF0895FC01CB
:100B200081A1882329F0A489B5898C9186FFFBCF08
:100B300011A208950F931F93CF93DF93FC01A68515
:100B4000B7858D01005C1F4FE8018881998101966E
:100B50008F739927AD014E5B5F4FEA012881398180
:100B600082179307D1F3E80128813981A20FB31FBF
:100B70006C93A685B785A05CBF4F11969C938E930E
:100B8000A689B7892C9181E090E0078C02C0880F7C
:100B9000991F0A94E2F7822B8C9381E081A3048849
:100BA000F589E02D80818064808381E090E0DF9191
:100BB000CF911F910F910895FB01E05CFF4F2081C1
:100BC00031812F5F3F4F2F733327DB01AE5BBF4F68
:100BD0004D915C912417350741F040815181DB0133
:100BE000A40FB51F8C933183208308951F920F9219
:100BF0000FB60F9211240BB60F922F933F934F9382
:100C00005F936F937F938F939F93AF93BF93EF9374
:100C1000FF938091C00082FD07C08091C6006BEEFB
:100C200074E00E94DC0502C08091C600FF91EF9144
:100C3000BF91AF919F918F917F916F915F914F91F4
:100C40003F912F910F900BBE0F900FBE0F901F90F2
:100C500018951F920F920FB60F9211240BB60F9298
:100C60002F933F934F935F936F937F938F939F93B4
:100C7000AF93BF93EF93FF938091C80082FD07C0AD
:100C80008091CE0063E674E00E94DC0502C0809192
:100C9000CE00FF91EF91BF91AF919F918F917F9186
:100CA0006F915F914F913F912F910F900BBE0F90DD
:100CB0000FBE0F901F9018951F920F920FB60F92B4
:100CC00011240BB60F922F933F934F935F936F9323
:100CD0007F938F939F93AF93BF93EF93FF938091F5
:100CE000D00082FD07C08091D6006BED73E00E94BA
:100CF000DC0502C08091D600FF91EF91BF91AF91CA
:100D00009F918F917F916F915F914F913F912F9123
:100D10000F900BBE0F900FBE0F901F9018951F9253
:100D20000F920FB60F9211240BB60F922F933F9391
:100D30004F935F936F937F938F939F93AF93BF93E3
:100D4000EF93FF938091300182FD07C080913601BF
:100D500063E573E00E94DC0502C080913601FF91DB
:100D6000EF91BF91AF919F918F917F916F915F9123
:100D70004F913F912F910F900BBE0F900FBE0F9090
:100D80001F9018951F920F920FB60F9211240BB659
:100D90000F922F933F938F939F93EF93FF93209105
:100DA000E7043091E8048091E9049091EA0428175F
:100DB000390731F48091C1008F7D8093C10014C048
:100DC000E091E904F091EA04E955FB4F208180911C
:100DD000E9049091EA0401968F7399279093EA04AD
:100DE0008093E9042093C600FF91EF919F918F912A
:100DF0003F912F910F900BBE0F900FBE0F901F9041
:100E000018951F920F920FB60F9211240BB60F92E6
:100E10002F933F938F939F93EF93FF9320915F04C2
:100E20003091600480916104909162042817390721
:100E300031F48091C9008F7D8093C90014C0E09186
:100E40006104F0916204E15EFB4F208180916104B6
:100E50009091620401968F73992790936204809316
:100E600061042093CE00FF91EF919F918F913F916C
:100E70002F910F900BBE0F900FBE0F901F901895E3
:100E80001F920F920FB60F9211240BB60F922F9351
:100E90003F938F939F93EF93FF932091D7033091CC
:100EA000D8038091D9039091DA032817390731F4D8
:100EB0008091D1008F7D8093D10014C0E091D9033F
:100EC000F091DA03E956FC4F20818091D90390918B
:100ED000DA0301968F7399279093DA038093D903ED
:100EE0002093D600FF91EF919F918F913F912F9189
:100EF0000F900BBE0F900FBE0F901F9018951F9272
:100F00000F920FB60F9211240BB60F922F933F93AF
:100F10008F939F93EF93FF9320914F033091500352
:100F200080915103909152032817390731F4809131
:100F300031018F7D8093310114C0E0915103F09114
:100F40005203E15FFC4F2081809151039091520345
:100F500001968F73992790935203809351032093A6
:100F60003601FF91EF919F918F913F912F910F90BB
:100F70000BBE0F900FBE0F901F901895CF92DF926F
:100F8000EF92FF920F931F93CF93DF93EC016A01CF
:100F90007B014115514E6105710509F1EC89FD890F
:100FA00081E090E008A002C0880F991F0A94E2F740
:100FB000808360E079E08DE390E0A70196010E94D4
:100FC000570989019A010150110921093109369502
:100FD000279517950795980101151041A8F0EC8900
:100FE000FD89108260E874E88EE190E0A701960127
:100FF0000E945709DA01C9010197A109B109B69503
:10100000A795979587959C01E889F9893083EA89A6
:10101000FB89208319A2EE89FF89408181E090E05D
:101020009C010C8C02C0220F331F0A94E2F7242B80
:101030002083EE89FF8940819C010D8C02C0220F24
:10104000331F0A94E2F7242B2083EE89FF89408125
:101050009C010E8C02C0220F331F0A94E2F7242B4E
:101060002083EE89FF8920810F8C02C0880F991F91
:101070000A94E2F7809582238083DF91CF911F91BC
:101080000F91FF90EF90DF90CF900895CF92DF9275
:10109000EF92FF92EDEEF2E01382128288EEC82EFC
:1010A00083E0D82EE12CF12CC482D582E682F7822F
:1010B00062E772E0718360838BEE94E095878487AA
:1010C00087EA94E09787868785EC90E0918B808B08
:1010D00084EC90E0938B828B80EC90E0958B848BFA
:1010E00081EC90E0978B868B82EC90E0918F808FE3
:1010F00086EC90E0938F828F44E0448F33E0358F0D
:1011000027E0268F95E0978F81E080A3EBECF2E05B
:1011100013821282C482D582E682F7827183608351
:10112000A3E6B4E0B587A487AFE1B4E0B787A687AC
:10113000ADECB0E0B18BA08BACECB0E0B38BA28B8C
:10114000A8ECB0E0B58BA48BA9ECB0E0B78BA68B74
:10115000AAECB0E0B18FA08FAEECB0E0B38FA28F5D
:10116000448F358F268F978F80A3E9EAF2E01382B0
:101170001282C482D582E682F78271836083ABEDEE
:10118000B3E0B587A487A7E9B3E0B787A687A5ED45
:10119000B0E0B18BA08BA4EDB0E0B38BA28BA0ED3F
:1011A000B0E0B58BA48BA1EDB0E0B78BA68BA2ED20
:1011B000B0E0B18FA08FA6EDB0E0B38FA28F448FC7
:1011C000358F268F978F80A3E7E8F2E01382128293
:1011D000C482D582E682F7827183608363E573E01F
:1011E000758764876FE073E07787668765E371E0F2
:1011F000718B608B64E371E0738B628B60E371E0F1
:10120000758B648B61E371E0778B668B62E371E0D1
:10121000718F608F66E371E0738F628F448F358FBB
:10122000268F978F80A3FF90EF90DF90CF90089547
:101230001F93FC0199278827BC01E8941191103273
:10124000E9F3193010F01E30C8F31B3251F01D3293
:1012500049F4689406C00E944209610F711D811D06
:10126000911D119110531A30B0F33EF49095809572
:10127000709561957F4F8F4F9F4F1F910895F89400
:101280000C948109592F482F372F262F660F771F6F
:10129000881F991F660F771F881F991F620F731F82
:1012A000841F951F660F771F881F991F0895A1E25D
:1012B0001A2EAA1BBB1BFD010DC0AA1FBB1FEE1FD0
:1012C000FF1FA217B307E407F50720F0A21BB30B1B
:1012D000E40BF50B661F771F881F991F1A9469F797
:1012E00060957095809590959B01AC01BD01CF01F3
:1012F0000895EE0FFF1F881F8BBF0790F691E02D1A
:061300001994F894FFCFE0
:1013060009000A000B000C000D00492077696C6C7F
:10131600206D656574205520403A200020617420B8
:1013260031343A33302074686973204672696461D7
:10133600790049207265616420616E20696E74656A
:101346006765723A20002074727920616761696E60
:1013560020426F6200756E646566696E656420641E
:101366006973706C6179206E756D6265720000003C
:0E13760000009A05740443056F0553058F05AA
:00000001FF
