:100000000C9442010C9473010C9473010C947301D1
:100010000C9473010C9473010C9473010C94730190
:100020000C9473010C9473010C9473010C94730180
:100030000C9473010C9473010C9473010C94730170
:100040000C9473010C9473010C9473010C94730160
:100050000C9473010C9473010C9473010C94D501EE
:100060000C9473010C9433050C94FF050C947301EC
:100070000C9473010C9473010C9473010C94730130
:100080000C9473010C9473010C9473010C94730120
:100090000C9466050C943E060C9473010C94730149
:1000A0000C9473010C9473010C9473010C94730100
:1000B0000C9473010C9473010C9473010C947301F0
:1000C0000C9473010C9473010C9473010C949905B6
:1000D0000C947D060C9473010C94CC050C94BC0616
:1000E0000C94730198029B028E029202D2029F022C
:1000F000A302A902AD02B102B702BB02BF02D20243
:10010000C502C902CD020C94D2020C949B020C943D
:10011000BB020C94B7020C949F020C94D7040C946D
:10012000A3020C94CC040C94C9020C9480040C948B
:1001300068030C9483070C9492020C94BF020C94F5
:10014000C5020C94A9020C94AD020C94B1020C945B
:1001500098020C9490040C94CD020C94AC040C9472
:100160008E020000090A02080B0C0D0706030401A9
:10017000000000000000000000000000000000007F
:10018000000000000000000000000000000011104E
:100190000F00000000000000000000000000000050
:1001A00000000000000000000102102020080810DC
:1001B00020401020408002010201080402010102D7
:1001C00004081020408080402010080402018004B0
:1001D000020180402010080402010804020101020B
:1001E000040810204080010204081020408005050A
:1001F0000505070508080808020202020A0A08089D
:1002000004040404010101010101010103030303CA
:1002100003030303040707070C0C0C0C0C0C0C0C59
:100220000202020206060606060606060B0B0B0B6A
:100230000B0B0B0B000020002300260029002C00D4
:100240002F00320000010000030106010901000037
:100250002200250028002B002E003100340002016E
:100260000000050108010B01000021002400270007
:100270002A002D00300033000101000004010701B5
:100280000A01830711241FBECFEFD1E2DEBFCDBF2D
:1002900000E00CBF12E0A0E0B2E0E8E0F1E100E035
:1002A0000BBF02C007900D92AC31B107D9F724E023
:1002B000ACE1B2E001C01D92AD3CB207E1F711E044
:1002C000C2E4D1E000E006C021970109802FFE01C1
:1002D0000E947A08C134D10780E00807A9F70E947C
:1002E00087010C9455080C9400000E941F0260E0E6
:1002F00088E00E94D30261E088E00E940F0340E89A
:1003000055E260E070E08BE892E00C94FB060E94FE
:10031000750188E00E943F03EC0160E072E08BE829
:1003200092E00E94A5034AE050E0BE018BE892E013
:100330000E9469048BE892E00E948004892BD1F32B
:100340008BE892E00E94AC04C82F8D3029F48BE832
:1003500092E00E94AE0324C0682F8BE892E00E94D6
:10036000A7030C2E000CDD0B4AE050E0BE018BE829
:1003700092E00E94690440E150E0BE018BE892E007
:100380000E9462044AE050E0BE018BE892E00E94C5
:10039000620442E050E0BE018BE892E00E946204F9
:1003A0008BE892E00E94CC04C5CF1F920F920FB64B
:1003B0000F9211242F933F938F939F93AF93BF93EB
:1003C00080911D0290911E02A0911F02B091200207
:1003D00030911C0223E0230F2D3720F40196A11D3C
:1003E000B11D05C026E8230F0296A11DB11D209363
:1003F0001C0280931D0290931E02A0931F02B093D3
:1004000020028091210290912202A0912302B091BA
:1004100024020196A11DB11D809321029093220216
:10042000A0932302B0932402BF91AF919F918F912B
:100430003F912F910F900FBE0F901F9018957894B9
:1004400084B5826084BD84B5816084BD85B58260D9
:1004500085BD85B5816085BDEEE6F0E08081816077
:100460008083E1E8F0E01082808182608083808177
:1004700081608083E0E8F0E0808181608083E1EB4F
:10048000F0E0808184608083E0EBF0E08081816037
:100490008083E1E9F0E080818260808380818160F7
:1004A0008083E0E9F0E0808181608083E1EAF0E030
:1004B000808182608083808181608083E0EAF0E0D7
:1004C000808181608083E1E2F1E0808182608083CD
:1004D000808181608083E0E2F1E0808181608083BF
:1004E000EAE7F0E08081846080838081826080839D
:1004F0008081816080838081806880831092C100C8
:10050000089590E0FC013197E131F10508F04AC00F
:100510008827EE58FF4F8F4F0C947A088091800007
:100520008F7703C0809180008F7D80938000089535
:1005300084B58F7702C084B58F7D84BD0895809186
:10054000B0008F7703C08091B0008F7D8093B000A2
:100550000895809190008F7707C0809190008F7DE3
:1005600003C080919000877F8093900008958091D0
:10057000A0008F7707C08091A0008F7D03C080917D
:10058000A000877F8093A0000895809120018F773D
:1005900007C0809120018F7D03C080912001877F5B
:1005A000809320010895CF93DF9390E0FC01E855FC
:1005B000FE4F2491FC01E251FE4F8491882361F1AA
:1005C00090E0880F991FFC01E859FD4FC591D49127
:1005D000FC01E25BFD4FA591B491611109C09FB789
:1005E000F8948881209582238883EC912E230BC078
:1005F000623061F49FB7F8943881822F809583230D
:100600008883EC912E2B2C939FBF06C08FB7F89454
:10061000E8812E2B28838FBFDF91CF9108951F9300
:10062000CF93DF93282F30E0F901EE59FE4F8491EC
:10063000F901E855FE4FD491F901E251FE4FC49102
:10064000CC23C9F0162F81110E948102EC2FF0E01B
:10065000EE0FFF1FE25BFD4FA591B4918FB7F894A9
:10066000111105C09C91ED2FE095E92302C0EC919A
:10067000ED2BEC938FBFDF91CF911F910895CF9316
:10068000DF93282F30E0F901EE59FE4F8491F901F4
:10069000E855FE4FD491F901E251FE4FC491CC23AD
:1006A00091F081110E948102EC2FF0E0EE0FFF1F0C
:1006B000EC5CFD4FA591B491EC91ED2381E090E0CD
:1006C00021F480E002C080E090E0DF91CF910895B6
:1006D000CF92DF92EF92FF920F931F93CF93DF930E
:1006E0006C01EB017B01E40EF51E00E010E0CE157D
:1006F000DF0561F06991D601ED91FC910190F081E7
:10070000E02DC6011995080F191FF1CFC801DF911F
:10071000CF911F910F91FF90EF90DF90CF900895B0
:100720006115710579F0FB0101900020E9F731971F
:10073000AF01461B570BDC01ED91FC910280F38168
:10074000E02D199480E090E008950C949003DC0172
:10075000ED91FC910190F081E02D19940F931F937E
:10076000CF93DF93EC016DE00E94A7038C016AE058
:10077000CE010E94A703800F911FDF91CF911F919F
:100780000F9108958F929F92AF92BF92CF92DF9276
:10079000EF92FF920F931F93CF93DF93CDB7DEB706
:1007A000A1970FB6F894DEBF0FBECDBF6C01142F1A
:1007B000E52FCB01022F19A2223008F40AE07E01B6
:1007C00021E2E20EF11C802E912CA12CB12C612F84
:1007D0007E2FA50194010E945808029F1019112430
:1007E00081E0E81AF1081A3014F4105D01C0195CB8
:1007F000F7011083122FE32FCA01232B242B252B63
:1008000031F7B701C6010E949003A1960FB6F89484
:10081000DEBF0FBECDBFDF91CF911F910F91FF9033
:10082000EF90DF90CF90BF90AF909F908F90089502
:10083000CF92DF92EF92FF920F931F93CF93DF93AC
:10084000EC016A017B012115310579F4E881F98118
:100850000190F081E02D642FDF91CF911F910F91D6
:10086000FF90EF90DF90CF9019942A303105E9F492
:1008700077FF1AC06DE20E94A7038C014427552719
:10088000BA014C195D096E097F092AE0CE010E9468
:10089000C203800F911FDF91CF911F910F91FF90A5
:1008A000EF90DF90CF9008952AE0B701A601CE0126
:1008B000DF91CF911F910F91FF90EF90DF90CF903C
:1008C0000C94C2039A01AB01770F660B770B0C9463
:1008D00018040F931F93CF93DF93EC019A01AB01A0
:1008E000770F660B770B0E9418048C01CE010E94D3
:1008F000AE03800F911FDF91CF911F910F9108954B
:10090000FC0124853585F901E05CFF4F80819181F0
:10091000329620813181821B930B8F739927089522
:10092000DC011C96ED91FC911D97DF01A05CBF4F8F
:100930002D913C91119712968D919C9111972817AA
:10094000390739F08D919C91E80FF91F808190E073
:1009500008958FEF9FEF0895FC01A485B585FD01F3
:10096000E05CFF4F20813181329680819181281790
:10097000390779F080819181A80FB91F8C9120816E
:1009800031812F5F3F4F2F7333273183208390E0D6
:1009900008958FEF9FEF0895FC0181A1882329F02E
:1009A000A489B5898C9186FFFBCF11A208950F937E
:1009B0001F93CF93DF93FC01A685B7858D01005C63
:1009C0001F4FE8018881998101968F739927AD01A6
:1009D0004E5B5F4FEA012881398182179307D1F37B
:1009E000E80128813981A20FB31F6C93A685B785D2
:1009F000A05CBF4F11969C938E93A689B7892C91CA
:100A000081E090E0078C02C0880F991F0A94E2F7FA
:100A1000822B8C9381E081A30488F589E02D80816D
:100A20008064808381E090E0DF91CF911F910F91EE
:100A30000895FB01E05CFF4F208131812F5F3F4F24
:100A40002F733327DB01AE5BBF4F4D915C912417B1
:100A5000350741F040815181DB01A40FB51F8C9314
:100A60003183208308951F920F920FB60F921124A5
:100A70000BB60F922F933F934F935F936F937F9398
:100A80008F939F93AF93BF93EF93FF938091C00099
:100A900082FD07C08091C60069E874E00E941905D4
:100AA00002C08091C600FF91EF91BF91AF919F91DD
:100AB0008F917F916F915F914F913F912F910F9007
:100AC0000BBE0F900FBE0F901F9018951F920F92A4
:100AD0000FB60F9211240BB60F922F933F934F93A3
:100AE0005F936F937F938F939F93AF93BF93EF9396
:100AF000FF938091C80082FD07C08091CE0061E025
:100B000074E00E94190502C08091CE00FF91EF9120
:100B1000BF91AF919F918F917F916F915F914F9115
:100B20003F912F910F900BBE0F900FBE0F901F9013
:100B300018951F920F920FB60F9211240BB60F92B9
:100B40002F933F934F935F936F937F938F939F93D5
:100B5000AF93BF93EF93FF938091D00082FD07C0C6
:100B60008091D60069E773E00E94190502C0809168
:100B7000D600FF91EF91BF91AF919F918F917F919F
:100B80006F915F914F913F912F910F900BBE0F90FE
:100B90000FBE0F901F9018951F920F920FB60F92D5
:100BA00011240BB60F922F933F934F935F936F9344
:100BB0007F938F939F93AF93BF93EF93FF93809116
:100BC000300182FD07C08091360161EF72E00E9422
:100BD000190502C080913601FF91EF91BF91AF914D
:100BE0009F918F917F916F915F914F913F912F9145
:100BF0000F900BBE0F900FBE0F901F9018951F9275
:100C00000F920FB60F9211240BB60F922F933F93B2
:100C10008F939F93EF93FF932091850430918604E7
:100C200080918704909188042817390731F48091C6
:100C3000C1008F7D8093C10014C0E0918704F091C2
:100C40008804EB5BFB4F208180918704909188049E
:100C500001968F739927909388048093870420933B
:100C6000C600FF91EF919F918F913F912F910F902F
:100C70000BBE0F900FBE0F901F9018951F920F92F2
:100C80000FB60F9211240BB60F922F933F938F93B1
:100C90009F93EF93FF932091FD033091FE0380918A
:100CA000FF03909100042817390731F48091C9009F
:100CB0008F7D8093C90014C0E091FF03F091000480
:100CC000E354FC4F20818091FF0390910004019632
:100CD0008F739927909300048093FF032093CE0095
:100CE000FF91EF919F918F913F912F910F900BBEAC
:100CF0000F900FBE0F901F9018951F920F920FB676
:100D00000F9211240BB60F922F933F938F939F93C3
:100D1000EF93FF93209175033091760380917703D1
:100D2000909178032817390731F48091D1008F7D95
:100D30008093D10014C0E0917703F0917803EB5CCD
:100D4000FC4F2081809177039091780301968F73F7
:100D5000992790937803809377032093D600FF918F
:100D6000EF919F918F913F912F910F900BBE0F901C
:100D70000FBE0F901F9018951F920F920FB60F92F3
:100D800011240BB60F922F933F938F939F93EF9362
:100D9000FF932091ED023091EE028091EF0290914D
:100DA000F0022817390731F4809131018F7D80934B
:100DB000310114C0E091EF02F091F002E355FD4FD4
:100DC00020818091EF029091F00201968F73992714
:100DD0009093F0028093EF0220933601FF91EF9100
:100DE0009F918F913F912F910F900BBE0F900FBE4F
:100DF0000F901F901895CF92DF92EF92FF920F9372
:100E00001F93CF93DF93EC016A017B014115514E93
:100E10006105710509F1EC89FD8981E090E008A088
:100E200002C0880F991F0A94E2F7808360E079E09E
:100E30008DE390E0A70196010E94580889019A016C
:100E40000150110921093109369527951795079504
:100E5000980101151041A8F0EC89FD89108260E825
:100E600074E88EE190E0A70196010E945808DA012B
:100E7000C9010197A109B109B695A79597958795DD
:100E80009C01E889F9893083EA89FB89208319A2CA
:100E9000EE89FF89408181E090E09C010C8C02C0CA
:100EA000220F331F0A94E2F7242B2083EE89FF8957
:100EB00040819C010D8C02C0220F331F0A94E2F77F
:100EC000242B2083EE89FF8940819C010E8C02C077
:100ED000220F331F0A94E2F7242B2083EE89FF8927
:100EE00020810F8C02C0880F991F0A94E2F7809529
:100EF00082238083DF91CF911F910F91FF90EF901C
:100F0000DF90CF900895CF92DF92EF92FF92EBE8BF
:100F1000F2E01382128288EEC82E83E0D82EE12CF4
:100F2000F12CC482D582E682F78260E172E071839F
:100F3000608389E894E09587848785E494E09787C7
:100F4000868785EC90E0918B808B84EC90E0938B8E
:100F5000828B80EC90E0958B848B81EC90E0978B7A
:100F6000868B82EC90E0918F808F86EC90E0938F5F
:100F7000828F44E0448F33E0358F27E0268F95E061
:100F8000978F81E080A3E9E6F2E013821282C482A7
:100F9000D582E682F78271836083A1E0B4E0B587F1
:100FA000A487ADEBB3E0B787A687ADECB0E0B18B1B
:100FB000A08BACECB0E0B38BA28BA8ECB0E0B58B0F
:100FC000A48BA9ECB0E0B78BA68BAAECB0E0B18FF4
:100FD000A08FAEECB0E0B38FA28F448F358F268FF9
:100FE000978F80A3E7E4F2E013821282C482D58255
:100FF000E682F78271836083A9E7B3E0B587A487AF
:10100000A5E3B3E0B787A687A5EDB0E0B18BA08BD1
:10101000A4EDB0E0B38BA28BA0EDB0E0B58BA48BB8
:10102000A1EDB0E0B78BA68BA2EDB0E0B18FA08FA1
:10103000A6EDB0E0B38FA28F448F358F268F978FA8
:1010400080A3E5E2F2E013821282C482D582E682B6
:10105000F7827183608361EF72E0758764876DEA60
:1010600072E07787668765E371E0718B608B64E37C
:1010700071E0738B628B60E371E0758B648B61E36D
:1010800071E0778B668B62E371E0718F608F66E34E
:1010900071E0738F628F448F358F268F978F80A377
:1010A000FF90EF90DF90CF900895F8940C94820811
:1010B000A1E21A2EAA1BBB1BFD010DC0AA1FBB1F5C
:1010C000EE1FFF1FA217B307E407F50720F0A21BCE
:1010D000B30BE40BF50B661F771F881F991F1A943B
:1010E00069F760957095809590959B01AC01BD0165
:1010F000CF010895EE0FFF1F881F8BBF0790F69159
:08110000E02D1994F894FFCFD3
:10110800696450696E382069733A20000000000055
:0C111800D70468038004AC049004CC04ED
:00000001FF
