:100000000C9442010C9473010C9473010C947301D1
:100010000C9473010C9473010C9473010C94730190
:100020000C9473010C9473010C9473010C94730180
:100030000C9473010C9473010C9473010C94730170
:100040000C9473010C9473010C9473010C94730160
:100050000C9473010C9473010C9473010C943F0283
:100060000C9473010C94D0040C949C050C947301B3
:100070000C9473010C9473010C9473010C94730130
:100080000C9473010C9473010C9473010C94730120
:100090000C9403050C94DB050C9473010C94730110
:1000A0000C9473010C9473010C9473010C94730100
:1000B0000C9473010C9473010C9473010C947301F0
:1000C0000C9473010C9473010C9473010C94360519
:1000D0000C941A060C9473010C9469050C9459063F
:1000E0000C9473014D0350034303470387035403E8
:1000F00058035E03620366036C0370037403870393
:100100007A037E0382030C9450030C9420070C9412
:1001100043030C9469040C9454030C941D040C9434
:100120006C030C9482030C9447030C9466030C94A8
:100130004D030C942D040C94F2070C9470030C9452
:100140007E030C9487030C9449040C945E030C9476
:100150007A030C9458030C9474030C9462030C946B
:1001600074040000090A02080B0C0D0706030401C1
:10017000000000000000000000000000000000007F
:10018000000000000000000000000000000011104E
:100190000F00000000000000000000000000000050
:1001A00000000000000000000102102020080810DC
:1001B00020401020408002010201080402010102D7
:1001C00004081020408080402010080402018004B0
:1001D000020180402010080402010804020101020B
:1001E000040810204080010204081020408005050A
:1001F0000505070508080808020202020A0A08089D
:1002000004040404010101010101010103030303CA
:1002100003030303040707070C0C0C0C0C0C0C0C59
:100220000202020206060606060606060B0B0B0B6A
:100230000B0B0B0B000020002300260029002C00D4
:100240002F00320000010000030106010901000037
:100250002200250028002B002E003100340002016E
:100260000000050108010B01000021002400270007
:100270002A002D00300033000101000004010701B5
:100280000A01200711241FBECFEFD1E2DEBFCDBF90
:1002900000E00CBF12E0A0E0B2E0E2EEF0E100E02E
:1002A0000BBF02C007900D92AA31B107D9F724E025
:1002B000AAE1B2E001C01D92A73DB207E1F711E04B
:1002C000C2E4D1E000E006C021970109802FFE01C1
:1002D0000E945308C134D10780E00807A9F70E94A3
:1002E00010020C941A080C940000CF93DF930E9424
:1002F000D40240E855E260E070E085E992E00E94B7
:100300009806C0E0D2E08881229661E00E948803CE
:1003100082E0CA30D807B9F762E086E00E9488031D
:1003200062E087E0DF91CF910C9488030F931F93D5
:10033000CF93DF939C01C4E2D2E0E4E0F0E002E07E
:1003400010E02115310531F49F01220F331F80E0A9
:1003500090E012C0EF3F4FEFF407B1F3C901B801CD
:100360000E941D0837FF02C02F5F3F4F359527952C
:100370009A938A933197E5CFEF3F4FEFF40751F00F
:10038000DC01A20FB31FA65EBD4F1D921C923197D8
:100390000297F2CF8AE192E0DF91CF911F910F9106
:1003A000089586E00E94F403892B71F087E00E9493
:1003B000F40321E030E0892B11F020E030E08827C1
:1003C0009927821B930B089581E090E008950F9385
:1003D0001F93CF93DF9300E012E0C0E0D0E0F8017C
:1003E00080810E5F1F4FE0912402F0912502EC0FF7
:1003F000FD1F60810E94C4032296CA30D10579F79F
:10040000DF91CF911F910F91089597FD04C0803225
:1004100091051CF408958FE101C080E090E00895FB
:100420000E94750180E090E00E9496019093250261
:10043000809324020E94E70100E010E0C0E00E94E7
:10044000D101C11111C0009799F0800F911F0E9436
:1004500005028C010E94960190932502809324024C
:100460000E94E701C1E004C0C1E0892B09F4C0E0AB
:1004700062E370E080E090E00E94AE02E0CF1F9265
:100480000F920FB60F9211242F933F938F939F9348
:10049000AF93BF938091270290912802A0912902E7
:1004A000B0912A023091260223E0230F2D3720F449
:1004B0000196A11DB11D05C026E8230F0296A11DBE
:1004C000B11D209326028093270290932802A093C7
:1004D0002902B0932A0280912B0290912C02A091C4
:1004E0002D02B0912E020196A11DB11D80932B0209
:1004F00090932C02A0932D02B0932E02BF91AF9146
:100500009F918F913F912F910F900FBE0F901F9051
:1005100018953FB7F89480912B0290912C02A091EE
:100520002D02B0912E0226B5A89B05C02F3F19F0D1
:100530000196A11DB11D3FBFBA2FA92F982F882763
:10054000820F911DA11DB11DBC01CD0142E0660FBE
:10055000771F881F991F4A95D1F70895CF92DF9290
:10056000EF92FF92CF93DF936B017C010E9489028F
:10057000EB01C114D104E104F10479F00E94890275
:100580006C1B7D0B683E7340A0F381E0C81AD10854
:10059000E108F108C851DC4FECCFDF91CF91FF901B
:1005A000EF90DF90CF900895789484B5826084BDF9
:1005B00084B5816084BD85B5826085BD85B5816067
:1005C00085BDEEE6F0E0808181608083E1E8F0E0C7
:1005D0001082808182608083808181608083E0E8F6
:1005E000F0E0808181608083E1EBF0E080818460D5
:1005F0008083E0EBF0E0808181608083E1E9F0E0DE
:10060000808182608083808181608083E0E9F0E086
:10061000808181608083E1EAF0E080818260808374
:10062000808181608083E0EAF0E080818160808366
:10063000E1E2F1E08081826080838081816080835B
:10064000E0E2F1E0808181608083EAE7F0E0808190
:1006500084608083808182608083808181608083E8
:100660008081806880831092C100089590E0FC0131
:100670003197E131F10508F04AC08827EE58FF4F65
:100680008F4F0C945308809180008F7703C0809126
:1006900080008F7D80938000089584B58F7702C09D
:1006A00084B58F7D84BD08958091B0008F7703C09D
:1006B0008091B0008F7D8093B0000895809190006C
:1006C0008F7707C0809190008F7D03C0809190004C
:1006D000877F8093900008958091A0008F7707C056
:1006E0008091A0008F7D03C08091A000877F8093C0
:1006F000A0000895809120018F7707C0809120018C
:100700008F7D03C080912001877F80932001089511
:10071000CF93DF9390E0FC01E855FE4F2491FC015C
:10072000E251FE4F8491882361F190E0880F991F78
:10073000FC01E859FD4FC591D491FC01E25BFD4FEE
:10074000A591B491611109C09FB7F8948881209553
:1007500082238883EC912E230BC0623061F49FB713
:10076000F8943881822F809583238883EC912E2BF7
:100770002C939FBF06C08FB7F894E8812E2B288357
:100780008FBFDF91CF9108951F93CF93DF93282FD1
:1007900030E0F901EE59FE4F8491F901E855FE4F22
:1007A000D491F901E251FE4FC491CC23C9F0162F28
:1007B00081110E943603EC2FF0E0EE0FFF1FE25B89
:1007C000FD4FA591B4918FB7F894111105C09C917C
:1007D000ED2FE095E92302C0EC91ED2BEC938FBF58
:1007E000DF91CF911F910895CF93DF93282F30E0B1
:1007F000F901EE59FE4F8491F901E855FE4FD4916D
:10080000F901E251FE4FC491CC2391F081110E9475
:100810003603EC2FF0E0EE0FFF1FEC5CFD4FA591CF
:10082000B491EC91ED2381E090E021F480E002C0EE
:1008300080E090E0DF91CF910895FC01248535851B
:10084000F901E05CFF4F80819181329620813181F6
:10085000821B930B8F7399270895DC011C96ED91F1
:10086000FC911D97DF01A05CBF4F2D913C9111972A
:1008700012968D919C9111972817390739F08D9117
:100880009C91E80FF91F808190E008958FEF9FEF12
:100890000895FC01A485B585FD01E05CFF4F208132
:1008A00031813296808191812817390779F08081D2
:1008B0009181A80FB91F8C91208131812F5F3F4F0B
:1008C0002F7333273183208390E008958FEF9FEFBC
:1008D0000895FC0181A1882329F0A489B5898C9110
:1008E00086FFFBCF11A208950F931F93CF93DF9341
:1008F000FC01A685B7858D01005C1F4FE80188814A
:10090000998101968F739927AD014E5B5F4FEA0184
:100910002881398182179307D1F3E8012881398131
:10092000A20FB31F6C93A685B785A05CBF4F11962D
:100930009C938E93A689B7892C9181E090E0078CD7
:1009400002C0880F991F0A94E2F7822B8C9381E0F2
:1009500081A30488F589E02D80818064808381E013
:1009600090E0DF91CF911F910F910895FB01E05C22
:10097000FF4F208131812F5F3F4F2F733327DB01E2
:10098000AE5BBF4F4D915C912417350741F040811C
:100990005181DB01A40FB51F8C933183208308950F
:1009A0001F920F920FB60F9211240BB60F922F9336
:1009B0003F934F935F936F937F938F939F93AF93E7
:1009C000BF93EF93FF938091C00082FD07C0809199
:1009D000C60063E974E00E94B60402C08091C600BC
:1009E000FF91EF91BF91AF919F918F917F916F9107
:1009F0005F914F913F912F910F900BBE0F900FBEC3
:100A00000F901F9018951F920F920FB60F921124FE
:100A10000BB60F922F933F934F935F936F937F93F8
:100A20008F939F93AF93BF93EF93FF938091C800F1
:100A300082FD07C08091CE006BE074E00E94B60496
:100A400002C08091CE00FF91EF91BF91AF919F9135
:100A50008F917F916F915F914F913F912F910F9067
:100A60000BBE0F900FBE0F901F9018951F920F9204
:100A70000FB60F9211240BB60F922F933F934F9303
:100A80005F936F937F938F939F93AF93BF93EF93F6
:100A9000FF938091D00082FD07C08091D60063E86B
:100AA00073E00E94B60402C08091D600FF91EF91DE
:100AB000BF91AF919F918F917F916F915F914F9176
:100AC0003F912F910F900BBE0F900FBE0F901F9074
:100AD00018951F920F920FB60F9211240BB60F921A
:100AE0002F933F934F935F936F937F938F939F9336
:100AF000AF93BF93EF93FF938091300182FD07C0C6
:100B0000809136016BEF72E00E94B60402C08091C2
:100B10003601FF91EF91BF91AF919F918F917F919E
:100B20006F915F914F913F912F910F900BBE0F905E
:100B30000FBE0F901F9018951F920F920FB60F9235
:100B400011240BB60F922F933F938F939F93EF93A4
:100B5000FF9320918F0430919004809191049091A3
:100B600092042817390731F48091C1008F7D80935A
:100B7000C10014C0E0919104F0919204E15BFB4F3D
:100B80002081809191049091920401968F7399270E
:100B900090939204809391042093C600FF91EF916B
:100BA0009F918F913F912F910F900BBE0F900FBE91
:100BB0000F901F9018951F920F920FB60F9211244D
:100BC0000BB60F922F933F938F939F93EF93FF93C7
:100BD00020910704309108048091090490910A043F
:100BE0002817390731F48091C9008F7D8093C9009F
:100BF00014C0E0910904F0910A04E953FC4F2081EC
:100C00008091090490910A0401968F73992790931B
:100C10000A04809309042093CE00FF91EF919F91E5
:100C20008F913F912F910F900BBE0F900FBE0F90A1
:100C30001F9018951F920F920FB60F9211240BB6AA
:100C40000F922F933F938F939F93EF93FF93209156
:100C50007F03309180038091810390918203281754
:100C6000390731F48091D1008F7D8093D10014C079
:100C7000E0918103F0918203E15CFC4F208180913F
:100C800081039091820301968F7399279093820339
:100C9000809381032093D600FF91EF919F918F91D4
:100CA0003F912F910F900BBE0F900FBE0F901F9092
:100CB00018951F920F920FB60F9211240BB60F9238
:100CC0002F933F938F939F93EF93FF932091F7027E
:100CD0003091F8028091F9029091FA0228173907B1
:100CE00031F4809131018F7D8093310114C0E09106
:100CF000F902F091FA02E954FD4F20818091F90246
:100D00009091FA0201968F7399279093FA0280933B
:100D1000F90220933601FF91EF919F918F913F91BE
:100D20002F910F900BBE0F900FBE0F901F90189534
:100D3000CF92DF92EF92FF920F931F93CF93DF93A7
:100D4000EC016A017B014115514E6105710509F104
:100D5000EC89FD8981E090E008A002C0880F991F0E
:100D60000A94E2F7808360E079E08DE390E0A701E8
:100D700096010E94310889019A0101501109210947
:100D8000310936952795179507959801011510415A
:100D9000A8F0EC89FD89108260E874E88EE190E0AB
:100DA000A70196010E943108DA01C9010197A10942
:100DB000B109B695A795979587959C01E889F9891A
:100DC0003083EA89FB89208319A2EE89FF8940815B
:100DD00081E090E09C010C8C02C0220F331F0A942A
:100DE000E2F7242B2083EE89FF8940819C010D8C42
:100DF00002C0220F331F0A94E2F7242B2083EE89CE
:100E0000FF8940819C010E8C02C0220F331F0A947F
:100E1000E2F7242B2083EE89FF8920810F8C02C00A
:100E2000880F991F0A94E2F7809582238083DF91CF
:100E3000CF911F910F91FF90EF90DF90CF90089589
:100E4000CF92DF92EF92FF92E5E9F2E013821282F5
:100E500088EEC82E83E0D82EE12CF12CC482D582F6
:100E6000E682F7826EE072E07183608383E994E04A
:100E7000958784878FE494E09787868785EC90E058
:100E8000918B808B84EC90E0938B828B80EC90E054
:100E9000958B848B81EC90E0978B868B82EC90E035
:100EA000918F808F86EC90E0938F828F44E0448F07
:100EB00033E0358F27E0268F95E0978F81E080A380
:100EC000E3E7F2E013821282C482D582E682F782DF
:100ED00071836083ABE0B4E0B587A487A7ECB3E08F
:100EE000B787A687ADECB0E0B18BA08BACECB0E0DF
:100EF000B38BA28BA8ECB0E0B58BA48BA9ECB0E0CF
:100F0000B78BA68BAAECB0E0B18FA08FAEECB0E0AF
:100F1000B38FA28F448F358F268F978F80A3E1E503
:100F2000F2E013821282C482D582E682F782718354
:100F30006083A3E8B3E0B587A487AFE3B3E0B787E6
:100F4000A687A5EDB0E0B18BA08BA4EDB0E0B38B8C
:100F5000A28BA0EDB0E0B58BA48BA1EDB0E0B78B78
:100F6000A68BA2EDB0E0B18FA08FA6EDB0E0B38F5D
:100F7000A28F448F358F268F978F80A3EFE2F2E008
:100F800013821282C482D582E682F78271836083E3
:100F90006BEF72E07587648767EB72E0778766872F
:100FA00065E371E0718B608B64E371E0738B628B3E
:100FB00060E371E0758B648B61E371E0778B668B26
:100FC00062E371E0718F608F66E371E0738F628F0F
:100FD000448F358F268F978F80A3FF90EF90DF90FF
:100FE000CF900895CF92DF92EF92FF920F931F93CD
:100FF000CF93DF936C01EB017B01E40EF51E00E063
:1010000010E0CE15DF0561F06991D601ED91FC91FC
:101010000190F081E02DC6011995080F191FF1CF3D
:10102000C801DF91CF911F910F91FF90EF90DF905A
:10103000CF900895F8940C946F0897FB072E16F440
:10104000009407D077FD09D00E945B0807FC05D00B
:101050003EF4909581959F4F0895709561957F4FCF
:101060000895A1E21A2EAA1BBB1BFD010DC0AA1FE9
:10107000BB1FEE1FFF1FA217B307E407F50720F001
:10108000A21BB30BE40BF50B661F771F881F991F7C
:101090001A9469F760957095809590959B01AC01C5
:1010A000BD01CF010895EE0FFF1F881F8BBF079072
:1010B000F691E02D1994AA1BBB1B51E107C0AA1F92
:1010C000BB1FA617B70710F0A61BB70B881F991FE9
:1010D0005A95A9F780959095BC01CD010895F89493
:0210E000FFCF40
:1010E2000D000C000B000A0009000000000074044F
:0A10F200F2071D0449042D046904EF
:00000001FF
