:100000000C9481000C94B2000C94B2000C94B200D9
:100010000C94B2000C94B2000C94B2000C94B20098
:100020000C94B2000C94B2000C94B2000C94B20088
:100030000C94B2000C94B2000C94B2000C94B20078
:100040000C94B2000C94B2000C94B2000C94B20068
:100050000C94B2000C94B2000C94B2000C941401F5
:100060000C94B2000C94A8030C9474040C94B20089
:100070000C94B2000C94B2000C94B2000C94B20038
:100080000C94B2000C94B2000C94B2000C94B20028
:100090000C94DB030C94B3040C94B2000C94B200E7
:1000A0000C94B2000C94B2000C94B2000C94B20008
:1000B0000C94B2000C94B2000C94B2000C94B200F8
:1000C0000C94B2000C94B2000C94B2000C940E0488
:1000D0000C94F2040C94B2000C9441040C9431057D
:1000E0000C94B2000C94C0010C9405030C94F5021E
:1000F0000C9421030C9441030C944C030C94F805CC
:10010000F80511241FBECFEFD1E2DEBFCDBF00E066
:100110000CBF12E0A0E0B2E0E2EFFDE000E00BBFB8
:1001200002C007900D92A038B107D9F725E0A0E8EA
:10013000B2E001C01D92A133B207E1F710E0C1E8BF
:10014000D0E000E006C021970109802FFE010E9447
:10015000EF06C038D10780E00807A9F70E94BE006B
:100160000C94CA060C9400000E945E0140E855E21F
:1001700060E070E08FEE92E00C9470050E94B40095
:1001800060E072E08FEE92E00E941A026DE072E091
:100190008FEE92E00E941A026CE172E08FEE92E024
:1001A0000E941A026AE78FEE92E00E942C026BE234
:1001B00072E08FEE92E00E94FD016BE372E08FEE41
:1001C00092E00E94FD018FEE92E00E9406026BE435
:1001D00072E08FEE92E00E941A026BE572E08FEE01
:1001E00092E00E941A0265E672E08FEE92E00E94B1
:1001F000FD0167E672E08FEE92E00E94FD014AE0A9
:1002000050E0BC018FEE92E00E94DE026DE672E0EB
:100210008FEE92E00E941A024AE050E0BC018FEE9D
:1002200092E00E94DE02FFCF1F920F920FB60F9254
:1002300011242F933F938F939F93AF93BF938091FC
:10024000810290918202A0918302B0918402309148
:10025000800223E0230F2D3720F40196A11DB11D4C
:1002600005C026E8230F0296A11DB11D2093800230
:100270008093810290938202A0938302B0938402C0
:100280008091850290918602A0918702B0918802A8
:100290000196A11DB11D8093850290938602A093C3
:1002A0008702B0938802BF91AF919F918F913F9148
:1002B0002F910F900FBE0F901F901895789484B5D2
:1002C000826084BD84B5816084BD85B5826085BD52
:1002D00085B5816085BDEEE6F0E080818160808338
:1002E000E1E8F0E01082808182608083808181601B
:1002F0008083E0E8F0E0808181608083E1EBF0E0E2
:10030000808184608083E0EBF0E080818160808385
:10031000E1E9F0E080818260808380818160808378
:10032000E0E9F0E0808181608083E1EAF0E08081B3
:1003300082608083808181608083E0EAF0E0808158
:1003400081608083E1E2F1E080818260808380814E
:1003500081608083E0E2F1E0808181608083EAE770
:10036000F0E08081846080838081826080838081EE
:10037000816080838081806880831092C1000895AD
:10038000CF92DF92EF92FF920F931F93CF93DF9361
:100390006C01EB017B01E40EF51E00E010E0CE15D0
:1003A000DF0561F06991D601ED91FC910190F0813A
:1003B000E02DC6011995080F191FF1CFC801DF9173
:1003C000CF911F910F91FF90EF90DF90CF90089504
:1003D0006115710579F0FB0101900020E9F7319773
:1003E000AF01461B570BDC01ED91FC910280F381BC
:1003F000E02D199480E090E008950C94E801DC0170
:10040000ED91FC910190F081E02D19940F931F93D1
:10041000CF93DF93EC016DE00E94FF018C016AE055
:10042000CE010E94FF01800F911FDF91CF911F919C
:100430000F9108950F931F93CF93DF93EC010E94C8
:10044000E8018C01CE010E940602800F911FDF910E
:10045000CF911F910F9108950F931F93CF93DF9327
:10046000EC010E94FF018C01CE010E940602800F68
:10047000911FDF91CF911F910F9108958F929F92BD
:10048000AF92BF92CF92DF92EF92FF920F931F93A2
:10049000CF93DF93CDB7DEB7A1970FB6F894DEBF49
:1004A0000FBECDBF6C01142FE52FCB01022F19A277
:1004B000223008F40AE07E0121E2E20EF11C802ED7
:1004C000912CA12CB12C612F7E2FA50194010E94AB
:1004D000CD06029F1019112481E0E81AF1081A30A4
:1004E00014F4105D01C0195CF7011083122FE32F83
:1004F000CA01232B242B252B31F7B701C6010E94FB
:10050000E801A1960FB6F894DEBF0FBECDBFDF9114
:10051000CF911F910F91FF90EF90DF90CF90BF9000
:10052000AF909F908F900895CF92DF92EF92FF92BD
:100530000F931F93CF93DF93EC016A017B01211589
:10054000310579F4E881F9810190F081E02D642F83
:10055000DF91CF911F910F91FF90EF90DF90CF909F
:1005600019942A303105E9F477FF1AC06DE20E9430
:10057000FF018C0144275527BA014C195D096E090A
:100580007F092AE0CE010E943E02800F911FDF9179
:10059000CF911F910F91FF90EF90DF90CF90089532
:1005A0002AE0B701A601CE01DF91CF911F910F91F3
:1005B000FF90EF90DF90CF900C943E020F931F932B
:1005C000CF93DF93EC019A01AB01770F660B770BAA
:1005D0000E9494028C01CE010E940602800F911F9E
:1005E000DF91CF911F910F910895FC0124853585EE
:1005F000F901E05CFF4F8081918132962081318149
:10060000821B930B8F7399270895DC011C96ED9143
:10061000FC911D97DF01A05CBF4F2D913C9111977C
:1006200012968D919C9111972817390739F08D9169
:100630009C91E80FF91F808190E008958FEF9FEF64
:100640000895FC01A485B585FD01E05CFF4F208184
:1006500031813296808191812817390779F0808124
:100660009181A80FB91F8C91208131812F5F3F4F5D
:100670002F7333273183208390E008958FEF9FEF0E
:100680000895FC0181A1882329F0A489B5898C9162
:1006900086FFFBCF11A208950F931F93CF93DF9393
:1006A000FC01A685B7858D01005C1F4FE80188819C
:1006B000998101968F739927AD014E5B5F4FEA01D7
:1006C0002881398182179307D1F3E8012881398184
:1006D000A20FB31F6C93A685B785A05CBF4F119680
:1006E0009C938E93A689B7892C9181E090E0078C2A
:1006F00002C0880F991F0A94E2F7822B8C9381E045
:1007000081A30488F589E02D80818064808381E065
:1007100090E0DF91CF911F910F910895FB01E05C74
:10072000FF4F208131812F5F3F4F2F733327DB0134
:10073000AE5BBF4F4D915C912417350741F040816E
:100740005181DB01A40FB51F8C9331832083089561
:100750001F920F920FB60F9211240BB60F922F9388
:100760003F934F935F936F937F938F939F93AF9339
:10077000BF93EF93FF938091C00082FD07C08091EB
:10078000C6006DEE74E00E948E0302C08091C60028
:10079000FF91EF91BF91AF919F918F917F916F9159
:1007A0005F914F913F912F910F900BBE0F900FBE15
:1007B0000F901F9018951F920F920FB60F92112451
:1007C0000BB60F922F933F934F935F936F937F934B
:1007D0008F939F93AF93BF93EF93FF938091C80044
:1007E00082FD07C08091CE0065E674E00E948E0312
:1007F00002C08091CE00FF91EF91BF91AF919F9188
:100800008F917F916F915F914F913F912F910F90B9
:100810000BBE0F900FBE0F901F9018951F920F9256
:100820000FB60F9211240BB60F922F933F934F9355
:100830005F936F937F938F939F93AF93BF93EF9348
:10084000FF938091D00082FD07C08091D6006DEDAE
:1008500073E00E948E0302C08091D600FF91EF9159
:10086000BF91AF919F918F917F916F915F914F91C8
:100870003F912F910F900BBE0F900FBE0F901F90C6
:1008800018951F920F920FB60F9211240BB60F926C
:100890002F933F934F935F936F937F938F939F9388
:1008A000AF93BF93EF93FF938091300182FD07C018
:1008B0008091360165E573E00E948E0302C080914D
:1008C0003601FF91EF91BF91AF919F918F917F91F1
:1008D0006F915F914F913F912F910F900BBE0F90B1
:1008E0000FBE0F901F9018951F920F920FB60F9288
:1008F00011240BB60F922F933F938F939F93EF93F7
:10090000FF932091E9043091EA048091EB049091E7
:10091000EC042817390731F48091C1008F7D809352
:10092000C10014C0E091EB04F091EC04E755FB4FDB
:1009300020818091EB049091EC0401968F739927AC
:100940009093EC048093EB042093C600FF91EF9109
:100950009F918F913F912F910F900BBE0F900FBEE3
:100960000F901F9018951F920F920FB60F9211249F
:100970000BB60F922F933F938F939F93EF93FF9319
:100980002091610430916204809163049091640429
:100990002817390731F48091C9008F7D8093C900F1
:1009A00014C0E0916304F0916404EF5DFB4F20817B
:1009B000809163049091640401968F7399279093BA
:1009C0006404809363042093CE00FF91EF919F9184
:1009D0008F913F912F910F900BBE0F900FBE0F90F4
:1009E0001F9018951F920F920FB60F9211240BB6FD
:1009F0000F922F933F938F939F93EF93FF932091A9
:100A0000D9033091DA038091DB039091DC0328173E
:100A1000390731F48091D1008F7D8093D10014C0CB
:100A2000E091DB03F091DC03E756FC4F20818091DD
:100A3000DB039091DC0301968F7399279093DC037D
:100A40008093DB032093D600FF91EF919F918F91CC
:100A50003F912F910F900BBE0F900FBE0F901F90E4
:100A600018951F920F920FB60F9211240BB60F928A
:100A70002F933F938F939F93EF93FF932091510375
:100A800030915203809153039091540328173907F2
:100A900031F4809131018F7D8093310114C0E09158
:100AA0005303F0915403EF5EFC4F20818091530378
:100AB0009091540301968F739927909354038093D8
:100AC000530320933601FF91EF919F918F913F91B6
:100AD0002F910F900BBE0F900FBE0F901F90189587
:100AE000CF92DF92EF92FF920F931F93CF93DF93FA
:100AF000EC016A017B014115514E6105710509F157
:100B0000EC89FD8981E090E008A002C0880F991F60
:100B10000A94E2F7808360E079E08DE390E0A7013A
:100B200096010E94CD0689019A01015011092109FF
:100B300031093695279517950795980101151041AC
:100B4000A8F0EC89FD89108260E874E88EE190E0FD
:100B5000A70196010E94CD06DA01C9010197A109FA
:100B6000B109B695A795979587959C01E889F9896C
:100B70003083EA89FB89208319A2EE89FF894081AD
:100B800081E090E09C010C8C02C0220F331F0A947C
:100B9000E2F7242B2083EE89FF8940819C010D8C94
:100BA00002C0220F331F0A94E2F7242B2083EE8920
:100BB000FF8940819C010E8C02C0220F331F0A94D2
:100BC000E2F7242B2083EE89FF8920810F8C02C05D
:100BD000880F991F0A94E2F7809582238083DF9122
:100BE000CF911F910F91FF90EF90DF90CF900895DC
:100BF000CF92DF92EF92FF92EFEEF2E01382128239
:100C000088EEC82E83E0D82EE12CF12CC482D58248
:100C1000E682F78264E772E0718360838DEE94E090
:100C20009587848789EA94E09787868785EC90E0AA
:100C3000918B808B84EC90E0938B828B80EC90E0A6
:100C4000958B848B81EC90E0978B868B82EC90E087
:100C5000918F808F86EC90E0938F828F44E0448F59
:100C600033E0358F27E0268F95E0978F81E080A3D2
:100C7000EDECF2E013821282C482D582E682F78222
:100C800071836083A5E6B4E0B587A487A1E2B4E0F0
:100C9000B787A687ADECB0E0B18BA08BACECB0E031
:100CA000B38BA28BA8ECB0E0B58BA48BA9ECB0E021
:100CB000B78BA68BAAECB0E0B18FA08FAEECB0E002
:100CC000B38FA28F448F358F268F978F80A3EBEA47
:100CD000F2E013821282C482D582E682F7827183A7
:100CE0006083ADEDB3E0B587A487A9E9B3E0B7872A
:100CF000A687A5EDB0E0B18BA08BA4EDB0E0B38BDF
:100D0000A28BA0EDB0E0B58BA48BA1EDB0E0B78BCA
:100D1000A68BA2EDB0E0B18FA08FA6EDB0E0B38FAF
:100D2000A28F448F358F268F978F80A3E9E8F2E05A
:100D300013821282C482D582E682F7827183608335
:100D400065E573E07587648761E173E0778766879F
:100D500065E371E0718B608B64E371E0738B628B90
:100D600060E371E0758B648B61E371E0778B668B78
:100D700062E371E0718F608F66E371E0738F628F61
:100D8000448F358F268F978F80A3FF90EF90DF9051
:100D9000CF900895F8940C94F706A1E21A2EAA1B9E
:100DA000BB1BFD010DC0AA1FBB1FEE1FFF1FA2171B
:100DB000B307E407F50720F0A21BB30BE40BF50B18
:100DC000661F771F881F991F1A9469F760957095A1
:100DD000809590959B01AC01BD01CF010895EE0F68
:100DE000FF1F881F8BBF0790F691E02D1994F89490
:020DF000FFCF33
:100DF20068656C6C6F20776F726C64210073656339
:100E02006F6E64206D6573736167650073747269D8
:100E12006E67206C69746572616C00676F746F0D28
:100E22000A6E65776C696E650D0A0022646F7562E1
:100E32006C652071756F74657322006361727269EB
:100E42006167650D72657475726E006C696E650A14
:100E52006665656400070061626364650068690035
:100E6200000000004C03C001F50221030503410309
:00000001FF
