:100000000C9481000C94B2000C94B2000C94B200D9
:100010000C94B2000C94B2000C94B2000C94B20098
:100020000C94B2000C94B2000C94B2000C94B20088
:100030000C94B2000C94B2000C94B2000C94B20078
:100040000C94B2000C94B2000C94B2000C94B20068
:100050000C94B2000C94B2000C94B2000C942C01DD
:100060000C94B2000C945A030C9426040C94B20025
:100070000C94B2000C94B2000C94B2000C94B20038
:100080000C94B2000C94B2000C94B2000C94B20028
:100090000C948D030C9465040C94B2000C94B20083
:1000A0000C94B2000C94B2000C94B2000C94B20008
:1000B0000C94B2000C94B2000C94B2000C94B200F8
:1000C0000C94B2000C94B2000C94B2000C94C003D7
:1000D0000C94A4040C94B2000C94F3030C94E30469
:1000E0000C94B2000C94AA050C94FE020C94A70286
:1000F0000C94F3020C94D8010C94B7020C94D30224
:10010000AA0511241FBECFEFD1E2DEBFCDBF00E0B4
:100110000CBF12E0A0E0B2E0EEECFDE000E00BBFAF
:1001200002C007900D92A232B107D9F724E0A2E2F3
:10013000B2E001C01D92A33DB207E1F710E0C1E8B3
:10014000D0E000E006C021970109802FFE010E9447
:10015000DD06C038D10780E00807A9F70E940B012F
:100160000C94A3060C9400000E94760140E855E22E
:1001700060E070E081E992E00C942205CF92DF927A
:10018000EF92FF920F931F93CF93DF937C016C014B
:10019000C0E0D0E08B0101501109C017D1076CF409
:1001A00081E992E00E94A70218161906B4F781E9C6
:1001B00092E00E94D3028D3061F4CE0DDF1D1882D3
:1001C000DF91CF911F910F91FF90EF90DF90CF9033
:1001D0000895F60181936F012196DFCFCF93DF93CE
:1001E000CDB7DEB7A0970FB6F894DEBF0FBECDBF78
:1001F00060E270E0CE0101960E94BE00CE01019641
:100200000E947C06A0960FB6F894DEBF0FBECDBF4D
:10021000DF91CF9108950E94B4000E94EE006B011F
:100220007C0160E072E081E992E00E9415022AE020
:1002300030E0B701A60181E992E00E94950222E038
:1002400030E0B701A60181E992E00E94880281E9CD
:1002500092E00E941E02E1CF1F920F920FB60F9202
:1002600011242F933F938F939F93AF93BF938091CC
:10027000230290912402A0912502B0912602309190
:10028000220223E0230F2D3720F40196A11DB11D7A
:1002900005C026E8230F0296A11DB11D209322025E
:1002A0008093230290932402A0932502B093260208
:1002B0008091270290912802A0912902B0912A02F0
:1002C0000196A11DB11D8093270290932802A0934F
:1002D0002902B0932A02BF91AF919F918F913F91D4
:1002E0002F910F900FBE0F901F901895789484B5A2
:1002F000826084BD84B5816084BD85B5826085BD22
:1003000085B5816085BDEEE6F0E080818160808307
:10031000E1E8F0E0108280818260808380818160EA
:100320008083E0E8F0E0808181608083E1EBF0E0B1
:10033000808184608083E0EBF0E080818160808355
:10034000E1E9F0E080818260808380818160808348
:10035000E0E9F0E0808181608083E1EAF0E0808183
:1003600082608083808181608083E0EAF0E0808128
:1003700081608083E1E2F1E080818260808380811E
:1003800081608083E0E2F1E0808181608083EAE740
:10039000F0E08081846080838081826080838081BE
:1003A000816080838081806880831092C10008957D
:1003B000CF92DF92EF92FF920F931F93CF93DF9331
:1003C0006C01EB017B01E40EF51E00E010E0CE15A0
:1003D000DF0561F06991D601ED91FC910190F0810A
:1003E000E02DC6011995080F191FF1CFC801DF9143
:1003F000CF911F910F91FF90EF90DF90CF900895D4
:100400006115710579F0FB0101900020E9F7319742
:10041000AF01461B570BDC01ED91FC910280F3818B
:10042000E02D199480E090E008950C940002DC0126
:10043000ED91FC910190F081E02D19940F931F93A1
:10044000CF93DF93EC016DE00E9417028C016AE00C
:10045000CE010E941702800F911FDF91CF911F9153
:100460000F9108958F929F92AF92BF92CF92DF9299
:10047000EF92FF920F931F93CF93DF93CDB7DEB729
:10048000A1970FB6F894DEBF0FBECDBF6C01142F3D
:10049000E52FCB01022F19A2223008F40AE07E01D9
:1004A00021E2E20EF11C802E912CA12CB12C612FA7
:1004B0007E2FA50194010E94BB06029F10191124F2
:1004C00081E0E81AF1081A3014F4105D01C0195CDB
:1004D000F7011083122FE32FCA01232B242B252B86
:1004E00031F7B701C6010E940002A1960FB6F89439
:1004F000DEBF0FBECDBFDF91CF911F910F91FF9057
:10050000EF90DF90CF90BF90AF909F908F90089525
:100510002115310541F4DC01ED91FC910190F08150
:10052000E02D642F19940C9432020F931F93CF93F4
:10053000DF93EC010E9488028C01CE010E941E0212
:10054000800F911FDF91CF911F910F910895FC01B2
:1005500024853585F901E05CFF4F808191813296D9
:1005600020813181821B930B8F7399270895DC01C1
:100570001C96ED91FC911D97DF01A05CBF4F2D9162
:100580003C91119712968D919C91119728173907DC
:1005900039F08D919C91E80FF91F808190E00895CA
:1005A0008FEF9FEF0895FC01A485B585FD01E05C08
:1005B000FF4F208131813296808191812817390740
:1005C00079F080819181A80FB91F8C9120813181B0
:1005D0002F5F3F4F2F7333273183208390E008959F
:1005E0008FEF9FEF0895FC0181A1882329F0A48952
:1005F000B5898C9186FFFBCF11A208950F931F93AD
:10060000CF93DF93FC01A685B7858D01005C1F4F5A
:10061000E8018881998101968F739927AD014E5B1E
:100620005F4FEA012881398182179307D1F3E801EE
:1006300028813981A20FB31F6C93A685B785A05C72
:10064000BF4F11969C938E93A689B7892C9181E018
:1006500090E0078C02C0880F991F0A94E2F7822B62
:100660008C9381E081A30488F589E02D80818064EA
:10067000808381E090E0DF91CF911F910F910895E9
:10068000FB01E05CFF4F208131812F5F3F4F2F73D3
:100690003327DB01AE5BBF4F4D915C9124173507CB
:1006A00041F040815181DB01A40FB51F8C93318350
:1006B000208308951F920F920FB60F9211240BB64C
:1006C0000F922F933F934F935F936F937F938F93EB
:1006D0009F93AF93BF93EF93FF938091C00082FDF0
:1006E00007C08091C6006FE874E00E94400302C01A
:1006F0008091C600FF91EF91BF91AF919F918F9133
:100700007F916F915F914F913F912F910F900BBE11
:100710000F900FBE0F901F9018951F920F920FB65B
:100720000F9211240BB60F922F933F934F935F9329
:100730006F937F938F939F93AF93BF93EF93FF93A9
:100740008091C80082FD07C08091CE0067E074E010
:100750000E94400302C08091CE00FF91EF91BF91B3
:10076000AF919F918F917F916F915F914F913F9149
:100770002F910F900BBE0F900FBE0F901F901895EA
:100780001F920F920FB60F9211240BB60F922F9358
:100790003F934F935F936F937F938F939F93AF9309
:1007A000BF93EF93FF938091D00082FD07C08091AB
:1007B000D6006FE773E00E94400302C08091D6002C
:1007C000FF91EF91BF91AF919F918F917F916F9129
:1007D0005F914F913F912F910F900BBE0F900FBEE5
:1007E0000F901F9018951F920F920FB60F92112421
:1007F0000BB60F922F933F934F935F936F937F931B
:100800008F939F93AF93BF93EF93FF9380913001AA
:1008100082FD07C08091360167EF72E00E944003BD
:1008200002C080913601FF91EF91BF91AF919F91EE
:100830008F917F916F915F914F913F912F910F9089
:100840000BBE0F900FBE0F901F9018951F920F9226
:100850000FB60F9211240BB60F922F933F938F93E5
:100860009F93EF93FF9320918B0430918C048091A0
:100870008D0490918E042817390731F48091C100BE
:100880008F7D8093C10014C0E0918D04F0918E049F
:10089000E55BFB4F208180918D0490918E04019641
:1008A0008F73992790938E0480938D042093C600B4
:1008B000FF91EF919F918F913F912F910F900BBEE0
:1008C0000F900FBE0F901F9018951F920F920FB6AA
:1008D0000F9211240BB60F922F933F938F939F93F8
:1008E000EF93FF9320910304309104048091050459
:1008F000909106042817390731F48091C9008F7D43
:100900008093C90014C0E0910504F0910604ED53F2
:10091000FC4F2081809105049091060401968F730D
:10092000992790930604809305042093CE00FF91AD
:10093000EF919F918F913F912F910F900BBE0F9050
:100940000FBE0F901F9018951F920F920FB60F9227
:1009500011240BB60F922F933F938F939F93EF9396
:10096000FF9320917B0330917C0380917D039091D4
:100970007E032817390731F48091D1008F7D809351
:10098000D10014C0E0917D03F0917E03E55CFC4F43
:10099000208180917D0390917E0301968F7399272A
:1009A00090937E0380937D032093D600FF91EF9177
:1009B0009F918F913F912F910F900BBE0F900FBE83
:1009C0000F901F9018951F920F920FB60F9211243F
:1009D0000BB60F922F933F938F939F93EF93FF93B9
:1009E0002091F3023091F4028091F5029091F60289
:1009F0002817390731F4809131018F7D80933101BF
:100A000014C0E091F502F091F602ED54FD4F208103
:100A10008091F5029091F60201968F739927909339
:100A2000F6028093F50220933601FF91EF919F919A
:100A30008F913F912F910F900BBE0F900FBE0F9093
:100A40001F901895CF92DF92EF92FF920F931F9312
:100A5000CF93DF93EC016A017B014115514E610593
:100A6000710509F1EC89FD8981E090E008A002C0E0
:100A7000880F991F0A94E2F7808360E079E08DE3A4
:100A800090E0A70196010E94BB0689019A010150DE
:100A90001109210931093695279517950795980170
:100AA00001151041A8F0EC89FD89108260E874E816
:100AB0008EE190E0A70196010E94BB06DA01C90110
:100AC0000197A109B109B695A795979587959C01BE
:100AD000E889F9893083EA89FB89208319A2EE89A4
:100AE000FF89408181E090E09C010C8C02C0220FC4
:100AF000331F0A94E2F7242B2083EE89FF8940817B
:100B00009C010D8C02C0220F331F0A94E2F7242BA4
:100B10002083EE89FF8940819C010E8C02C0220F48
:100B2000331F0A94E2F7242B2083EE89FF8920816A
:100B30000F8C02C0880F991F0A94E2F780958223D8
:100B40008083DF91CF911F910F91FF90EF90DF9005
:100B5000CF900895CF92DF92EF92FF92E1E9F2E019
:100B60001382128288EEC82E83E0D82EE12CF12C5D
:100B7000C482D582E682F78265E172E07183608388
:100B80008FE894E0958784878BE494E09787868745
:100B900085EC90E0918B808B84EC90E0938B828B42
:100BA00080EC90E0958B848B81EC90E0978B868B2A
:100BB00082EC90E0918F808F86EC90E0938F828F13
:100BC00044E0448F33E0358F27E0268F95E0978F00
:100BD00081E080A3EFE6F2E013821282C482D58224
:100BE000E682F78271836083A7E0B4E0B587A487CB
:100BF000A3ECB3E0B787A687ADECB0E0B18BA08BD8
:100C0000ACECB0E0B38BA28BA8ECB0E0B58BA48BBE
:100C1000A9ECB0E0B78BA68BAAECB0E0B18FA08FA7
:100C2000AEECB0E0B38FA28F448F358F268F978FB5
:100C300080A3EDE4F2E013821282C482D582E682C0
:100C4000F78271836083AFE7B3E0B587A487ABE336
:100C5000B3E0B787A687A5EDB0E0B18BA08BA4ED7C
:100C6000B0E0B38BA28BA0EDB0E0B58BA48BA1ED6F
:100C7000B0E0B78BA68BA2EDB0E0B18FA08FA6ED50
:100C8000B0E0B38FA28F448F358F268F978F80A3CC
:100C9000EBE2F2E013821282C482D582E682F7820E
:100CA0007183608367EF72E07587648763EB72E03E
:100CB0007787668765E371E0718B608B64E371E031
:100CC000738B628B60E371E0758B648B61E371E021
:100CD000778B668B62E371E0718F608F66E371E002
:100CE000738F628F448F358F268F978F80A3FF90ED
:100CF000EF90DF90CF9008951F93FC0199278827EC
:100D0000BC01E89411911032E9F3193010F01E3053
:100D1000C8F31B3251F01D3249F4689406C00E949A
:100D2000A606610F711D811D911D119110531A307E
:100D3000B0F33EF490958095709561957F4F8F4FFD
:100D40009F4F1F910895F8940C94E506592F482F52
:100D5000372F262F660F771F881F991F660F771F63
:100D6000881F991F620F731F841F951F660F771FBF
:100D7000881F991F0895A1E21A2EAA1BBB1BFD0113
:100D80000DC0AA1FBB1FEE1FFF1FA217B307E4076A
:100D9000F50720F0A21BB30BE40BF50B661F771FC2
:100DA000881F991F1A9469F76095709580959095A2
:100DB0009B01AC01BD01CF010895EE0FFF1F881FFD
:0E0DC0008BBF0790F691E02D1994F894FFCFA9
:100DCE0049207265616420696E74656765723A20A8
:100DDE000000000000FE02D801A702D302B702F302
:020DEE00020001
:00000001FF
