:100000000C9481000C94B2000C94B2000C94B200D9
:100010000C94B2000C94B2000C94B2000C94B20098
:100020000C94B2000C94B2000C94B2000C94B20088
:100030000C94B2000C94B2000C94B2000C94B20078
:100040000C94B2000C94B2000C94B2000C94B20068
:100050000C94B2000C94B2000C94B2000C94E20028
:100060000C94B2000C9459030C9425040C94B20027
:100070000C94B2000C94B2000C94B2000C94B20038
:100080000C94B2000C94B2000C94B2000C94B20028
:100090000C948C030C9464040C94B2000C94B20085
:1000A0000C94B2000C94B2000C94B2000C94B20008
:1000B0000C94B2000C94B2000C94B2000C94B200F8
:1000C0000C94B2000C94B2000C94B2000C94BF03D8
:1000D0000C94A3040C94B2000C94F2030C94E2046C
:1000E0000C94B2000C94A9050C94B6020C94A602D0
:1000F0000C94D2020C94F2020C94FE010C94FD02BA
:10010000A90511241FBECFEFD1E2DEBFCDBF00E0B5
:100110000CBF12E0A0E0B2E0E4E5FDE000E00BBFC0
:1001200002C007900D92AC33B107D9F724E0ACE3DD
:10013000B2E001C01D92AD3EB207E1F710E0C1E8A8
:10014000D0E000E006C021970109802FFE010E9447
:10015000A006C038D10780E00807A9F70E94D100A7
:100160000C947B060C9400000E94770140E855E255
:1001700060E070E08BEA92E00C942105CF93DF936E
:1001800086E30E94D901EC01C170DD2742E050E016
:10019000BE018BEA92E00E94A002CE01DF91CF91D6
:1001A00008950E94B40061E072E08BEA92E00E9440
:1001B0003B020E94BE0068EE73E080E090E00E9487
:1001C0005101F7CF1F920F920FB60F9211242F9368
:1001D0003F938F939F93AF93BF9380913D029091F4
:1001E0003E02A0913F02B091400230913C0223E0D8
:1001F000230F2D3720F40196A11DB11D05C026E85F
:10020000230F0296A11DB11D20933C0280933D0255
:1002100090933E02A0933F02B0934002809141022E
:1002200090914202A0914302B09144020196A11D17
:10023000B11D8093410290934202A0934302B09378
:100240004402BF91AF919F918F913F912F910F9059
:100250000FBE0F901F9018953FB7F8948091410200
:1002600090914202A0914302B091440226B5A89B0E
:1002700005C02F3F19F00196A11DB11D3FBFBA2F38
:10028000A92F982F8827820F911DA11DB11DBC0198
:10029000CD0142E0660F771F881F991F4A95D1F75D
:1002A0000895CF92DF92EF92FF92CF93DF936B018D
:1002B0007C010E942C01EB01C114D104E104F10482
:1002C00079F00E942C016C1B7D0B683E7340A0F3FB
:1002D00081E0C81AD108E108F108C851DC4FECCF21
:1002E000DF91CF91FF90EF90DF90CF9008957894B9
:1002F00084B5826084BD84B5816084BD85B582602B
:1003000085BD85B5816085BDEEE6F0E080818160C8
:100310008083E1E8F0E010828081826080838081C8
:1003200081608083E0E8F0E0808181608083E1EBA0
:10033000F0E0808184608083E0EBF0E08081816088
:100340008083E1E9F0E08081826080838081816048
:100350008083E0E9F0E0808181608083E1EAF0E081
:10036000808182608083808181608083E0EAF0E028
:10037000808181608083E1E2F1E08081826080831E
:10038000808181608083E0E2F1E080818160808310
:10039000EAE7F0E0808184608083808182608083EE
:1003A0008081816080838081806880831092C10019
:1003B0000895863308F0865390917B00282F28708B
:1003C000977F922B90937B0087702091000290E49E
:1003D000299F90011124822B80937C0080917A00C8
:1003E000806480937A0080917A0086FDFCCF8091B2
:1003F00078002091790090E0922B0895CF92DF92BF
:10040000EF92FF920F931F93CF93DF936C01EB0159
:100410007B01E40EF51E00E010E0CE15DF0561F073
:100420006991D601ED91FC910190F081E02DC6011A
:100430001995080F191FF1CFC801DF91CF911F91B6
:100440000F91FF90EF90DF90CF90089561157105A7
:1004500079F0FB0101900020E9F73197AF01461BCD
:10046000570BDC01ED91FC910280F381E02D199492
:1004700080E090E008950C9426028F929F92AF92B4
:10048000BF92CF92DF92EF92FF920F931F93CF9381
:10049000DF93CDB7DEB7A1970FB6F894DEBF0FBEDE
:1004A000CDBF6C01142FE52FCB01022F19A22230F2
:1004B00008F40AE07E0121E2E20EF11C802E912C6C
:1004C000A12CB12C612F7E2FA50194010E947E06E4
:1004D000029F1019112481E0E81AF1081A3014F46F
:1004E000105D01C0195CF7011083122FE32FCA01C0
:1004F000232B242B252B31F7B701C6010E9426029E
:10050000A1960FB6F894DEBF0FBECDBFDF91CF919D
:100510001F910F91FF90EF90DF90CF90BF90AF9021
:100520009F908F9008952115310541F4DC01ED91E4
:10053000FC910190F081E02D642F19940C943D0200
:100540009A01AB0160E070E00C949302FC012485F9
:100550003585F901E05CFF4F8081918132962081E1
:100560003181821B930B8F7399270895DC011C96B0
:10057000ED91FC911D97DF01A05CBF4F2D913C9147
:10058000119712968D919C9111972817390739F080
:100590008D919C91E80FF91F808190E008958FEF75
:1005A0009FEF0895FC01A485B585FD01E05CFF4F38
:1005B000208131813296808191812817390779F025
:1005C00080819181A80FB91F8C91208131812F5F8B
:1005D0003F4F2F7333273183208390E008958FEFAF
:1005E0009FEF0895FC0181A1882329F0A489B58992
:1005F0008C9186FFFBCF11A208950F931F93CF9389
:10060000DF93FC01A685B7858D01005C1F4FE801D3
:100610008881998101968F739927AD014E5B5F4F59
:10062000EA012881398182179307D1F3E8012881F3
:100630003981A20FB31F6C93A685B785A05CBF4F0D
:1006400011969C938E93A689B7892C9181E090E0B6
:10065000078C02C0880F991F0A94E2F7822B8C93B3
:1006600081E081A30488F589E02D80818064808306
:1006700081E090E0DF91CF911F910F910895FB01F0
:10068000E05CFF4F208131812F5F3F4F2F73332775
:10069000DB01AE5BBF4F4D915C912417350741F0F4
:1006A00040815181DB01A40FB51F8C9331832083DE
:1006B00008951F920F920FB60F9211240BB60F924E
:1006C0002F933F934F935F936F937F938F939F935A
:1006D000AF93BF93EF93FF938091C00082FD07C05B
:1006E0008091C60069EA74E00E943F0302C08091D5
:1006F000C600FF91EF91BF91AF919F918F917F9134
:100700006F915F914F913F912F910F900BBE0F9082
:100710000FBE0F901F9018951F920F920FB60F9259
:1007200011240BB60F922F933F934F935F936F93C8
:100730007F938F939F93AF93BF93EF93FF9380919A
:10074000C80082FD07C08091CE0061E274E00E9483
:100750003F0302C08091CE00FF91EF91BF91AF9116
:100760009F918F917F916F915F914F913F912F91C9
:100770000F900BBE0F900FBE0F901F9018951F92F9
:100780000F920FB60F9211240BB60F922F933F9337
:100790004F935F936F937F938F939F93AF93BF9389
:1007A000EF93FF938091D00082FD07C08091D60027
:1007B00069E973E00E943F0302C08091D600FF9177
:1007C000EF91BF91AF919F918F917F916F915F91C9
:1007D0004F913F912F910F900BBE0F900FBE0F9036
:1007E0001F9018951F920F920FB60F9211240BB6FF
:1007F0000F922F933F934F935F936F937F938F93BA
:100800009F93AF93BF93EF93FF938091300182FD4D
:1008100007C08091360161E173E00E943F0302C08E
:1008200080913601FF91EF91BF91AF919F918F9190
:100830007F916F915F914F913F912F910F900BBEE0
:100840000F900FBE0F901F9018951F920F920FB62A
:100850000F9211240BB60F922F933F938F939F9378
:10086000EF93FF932091A5043091A6048091A704F3
:100870009091A8042817390731F48091C1008F7D29
:100880008093C10014C0E091A704F091A804EB5933
:10089000FB4F20818091A7049091A80401968F734B
:1008A00099279093A8048093A7042093C600FF91F2
:1008B000EF919F918F913F912F910F900BBE0F90D1
:1008C0000FBE0F901F9018951F920F920FB60F92A8
:1008D00011240BB60F922F933F938F939F93EF9317
:1008E000FF9320911D0430911E0480911F0490916C
:1008F00020042817390731F48091C9008F7D809337
:10090000C90014C0E0911F04F0912004E352FC4F91
:10091000208180911F049091200401968F73992764
:100920009093200480931F042093CE00FF91EF91B9
:100930009F918F913F912F910F900BBE0F900FBE03
:100940000F901F9018951F920F920FB60F921124BF
:100950000BB60F922F933F938F939F93EF93FF9339
:10096000209195033091960380919703909198037D
:100970002817390731F48091D1008F7D8093D10001
:1009800014C0E0919703F0919803EB5AFC4F20813B
:10099000809197039091980301968F739927909374
:1009A0009803809397032093D600FF91EF919F9136
:1009B0008F913F912F910F900BBE0F900FBE0F9014
:1009C0001F9018951F920F920FB60F9211240BB61D
:1009D0000F922F933F938F939F93EF93FF932091C9
:1009E0000D0330910E0380910F039091100328178F
:1009F000390731F4809131018F7D8093310114C02A
:100A0000E0910F03F0911003E353FD4F208180919B
:100A10000F039091100301968F7399279093100301
:100A200080930F0320933601FF91EF919F918F9157
:100A30003F912F910F900BBE0F900FBE0F901F9004
:100A40001895CF92DF92EF92FF920F931F93CF935F
:100A5000DF93EC016A017B014115514E610571057F
:100A600009F1EC89FD8981E090E008A002C0880FBF
:100A7000991F0A94E2F7808360E079E08DE390E0CB
:100A8000A70196010E947E0689019A010150110971
:100A90002109310936952795179507959801011574
:100AA0001041A8F0EC89FD89108260E874E88EE1BD
:100AB00090E0A70196010E947E06DA01C901019724
:100AC000A109B109B695A795979587959C01E889E5
:100AD000F9893083EA89FB89208319A2EE89FF898D
:100AE000408181E090E09C010C8C02C0220F331FFA
:100AF0000A94E2F7242B2083EE89FF8940819C0130
:100B00000D8C02C0220F331F0A94E2F7242B20839E
:100B1000EE89FF8940819C010E8C02C0220F331F99
:100B20000A94E2F7242B2083EE89FF8920810F8C21
:100B300002C0880F991F0A94E2F780958223808370
:100B4000DF91CF911F910F91FF90EF90DF90CF90A9
:100B50000895CF92DF92EF92FF92EBEAF2E01382D8
:100B6000128288EEC82E83E0D82EE12CF12CC482AC
:100B7000D582E682F78260E372E07183608389EA5E
:100B800094E09587848785E694E09787868785EC4F
:100B900090E0918B808B84EC90E0938B828B80EC47
:100BA00090E0958B848B81EC90E0978B868B82EC28
:100BB00090E0918F808F86EC90E0938F828F44E05D
:100BC000448F33E0358F27E0268F95E0978F81E0C3
:100BD00080A3E9E8F2E013821282C482D582E68221
:100BE000F78271836083A1E2B4E0B587A487ADED9D
:100BF000B3E0B787A687ADECB0E0B18BA08BACECCF
:100C0000B0E0B38BA28BA8ECB0E0B58BA48BA9ECC1
:100C1000B0E0B78BA68BAAECB0E0B18FA08FAEECA2
:100C2000B0E0B38FA28F448F358F268F978F80A32C
:100C3000E7E6F2E013821282C482D582E682F7826E
:100C400071836083A9E9B3E0B587A487A5E5B3E024
:100C5000B787A687A5EDB0E0B18BA08BA4EDB0E07F
:100C6000B38BA28BA0EDB0E0B58BA48BA1EDB0E06F
:100C7000B78BA68BA2EDB0E0B18FA08FA6EDB0E050
:100C8000B38FA28F448F358F268F978F80A3E5E493
:100C9000F2E013821282C482D582E682F7827183E7
:100CA000608361E173E0758764876DEC72E077873C
:100CB000668765E371E0718B608B64E371E0738B31
:100CC000628B60E371E0758B648B61E371E0778B1D
:100CD000668B62E371E0718F608F66E371E0738F02
:100CE000628F448F358F268F978F80A3FF90EF9070
:100CF000DF90CF900895F8940C94A806A1E21A2EE4
:100D0000AA1BBB1BFD010DC0AA1FBB1FEE1FFF1FAF
:100D1000A217B307E407F50720F0A21BB30BE40BFF
:100D2000F50B661F771F881F991F1A9469F7609546
:100D30007095809590959B01AC01BD01CF01089500
:100D4000EE0FFF1F881F8BBF0790F691E02D1994BF
:040D5000F894FFCF45
:100D54000152616E646F6D206269742067656E650F
:100D6400726174696F6E207573696E6720616E615C
:100D74006C6F672070696E2041300A00000000002B
:0C0D8400FD02FE01A602D202B602F2023D
:00000001FF
