:100000000C9433010C9447010C9447010C94470164
:100010000C9447010C9447010C9447010C94470140
:100020000C9447010C9447010C9447010C94470130
:100030000C9447010C9447010C9447010C94470120
:100040000C9447010C9447010C9447010C94470110
:100050000C9447010C9447010C9447010C94120234
:100060000C9447010C9447010C9447010C944701F0
:100070000C9447010C9447010C9447010C944701E0
:100080000C9447010C9447010C9447010C944701D0
:100090000C9447010C9447010C9447010C944701C0
:1000A0000C9447010C9447010C9447010C944701B0
:1000B0000C9447010C9447010C9447010C944701A0
:1000C0000C9447010C9447010C9447010C94470190
:1000D0000C9447010C9447010C9447010C94470180
:1000E0000C9447012003230316031A035A03270322
:1000F0002B033103350339033F03430347035A03FB
:100100004D03510355030C945A030C9423030C9490
:1001100043030C943F030C9427030C942B030C947F
:1001200051030C941A030C9447030C944D030C9444
:1001300031030C9435030C9439030C9420030C9474
:1001400055030C9416030000090A02080B0C0D0756
:100150000603040100000000000000000000000091
:10016000000000000000000000000000000000008F
:10017000000011100F00000000000000000000004F
:10018000000000000000000000000000010210203C
:1001900020080810204010204080020102010804BD
:1001A0000201010204081020408080402010080451
:1001B00002018004020180402010080402010804AA
:1001C00002010102040810204080010204081020EE
:1001D0004080050505050705080808080202020217
:1001E0000A0A0808040404040101010101010101D3
:1001F0000303030303030303040707070C0C0C0C9E
:100200000C0C0C0C02020202060606060606060686
:100210000B0B0B0B0B0B0B0B00002000230026001D
:1002200029002C002F00320000010000030106010C
:10023000090100002200250028002B002E003100BB
:10024000340002010000050108010B01000021003B
:10025000240027002A002D00300033000101000097
:10026000040107010A0111241FBECFEFD1E2DEBF56
:10027000CDBF00E00CBF22E0A0E0B2E001C01D92C3
:10028000A930B207E1F70E9484010C94F0030C94AA
:1002900000000E94A70261E08DE00E945B0361E024
:1002A0008CE00E945B0361E08BE00E945B0361E0F5
:1002B0008AE00E945B0361E089E00E945B0360E0EA
:1002C00086E00E945B0361E086E00E94970360E0A5
:1002D00087E00E945B0361E087E00C9497031F9323
:1002E000CF93DF93182FEB0161E00E949703BE01CB
:1002F000DD0F880B990B0E94810260E0812FDF9156
:10030000CF911F910C9497030E944901CAE0D0E05D
:1003100064E670E08DE090E00E946F0164E670E0BA
:100320008CE090E00E946F0164E670E08BE090E06A
:100330000E946F0164E670E08AE090E00E946F0125
:1003400064E670E089E090E00E946F0164E670E08E
:100350008AE090E00E946F0164E670E08BE090E03C
:100360000E946F0164E670E08CE090E00E946F01F3
:10037000219771F6C0E0D0E086E00E94C703892B88
:1003800009F4219687E00E94C703892B09F421977D
:10039000C630D105A4F061E08CE00E94970360E0D4
:1003A0008BE00E94970360E08AE00E949703CB30C5
:1003B000D10514F061E001C060E08DE02AC060E08A
:1003C000CB3F8FEFD807A4F48CE00E94970360E046
:1003D0008BE00E94970361E08AE00E949703C63F8A
:1003E0008FEFD80714F461E001C060E089E011C02C
:1003F0008DE00E94970360E08CE00E94970361E02B
:100400008BE00E94970360E08AE00E94970360E01F
:100410008AE00E94970362E370E080E090E00E942F
:100420008102AACF1F920F920FB60F9211242F9321
:100430003F938F939F93AF93BF93809101029091CD
:100440000202A0910302B09104023091000223E065
:10045000230F2D3720F40196A11DB11D05C026E8FC
:10046000230F0296A11DB11D20930002809301026B
:1004700090930202A0930302B093040280910502BC
:1004800090910602A0910702B09108020196A11D69
:10049000B11D8093050290930602A0930702B093CA
:1004A0000802BF91AF919F918F913F912F910F9033
:1004B0000FBE0F901F9018953FB7F89480910502DA
:1004C00090910602A0910702B091080226B5A89B60
:1004D00005C02F3F19F00196A11DB11D3FBFBA2FD6
:1004E000A92F982F8827820F911DA11DB11DBC0136
:1004F000CD0142E0660F771F881F991F4A95D1F7FB
:100500000895CF92DF92EF92FF92CF93DF936B012A
:100510007C010E945C02EB01C114D104E104F104EE
:1005200079F00E945C026C1B7D0B683E7340A0F367
:1005300081E0C81AD108E108F108C851DC4FECCFBE
:10054000DF91CF91FF90EF90DF90CF900895789456
:1005500084B5826084BD84B5816084BD85B58260C8
:1005600085BD85B5816085BDEEE6F0E08081816066
:100570008083E1E8F0E01082808182608083808166
:1005800081608083E0E8F0E0808181608083E1EB3E
:10059000F0E0808184608083E0EBF0E08081816026
:1005A0008083E1E9F0E080818260808380818160E6
:1005B0008083E0E9F0E0808181608083E1EAF0E01F
:1005C000808182608083808181608083E0EAF0E0C6
:1005D000808181608083E1E2F1E0808182608083BC
:1005E000808181608083E0E2F1E0808181608083AE
:1005F000EAE7F0E08081846080838081826080838C
:100600008081816080838081806880831092C100B6
:10061000089590E0FC013197E131F10508F04AC0FE
:100620008827EE58FF4F8F4F0C94F3038091800082
:100630008F7703C0809180008F7D80938000089524
:1006400084B58F7702C084B58F7D84BD0895809175
:10065000B0008F7703C08091B0008F7D8093B00091
:100660000895809190008F7707C0809190008F7DD2
:1006700003C080919000877F8093900008958091BF
:10068000A0008F7707C08091A0008F7D03C080916C
:10069000A000877F8093A0000895809120018F772C
:1006A00007C0809120018F7D03C080912001877F4A
:1006B000809320010895CF93DF9390E0FC01E457ED
:1006C000FE4F2491FC01EE52FE4F8491882361F18C
:1006D00090E0880F991FFC01E45BFD4FC591D49118
:1006E000FC01EE5CFD4FA591B491611109C09FB76B
:1006F000F8948881209582238883EC912E230BC067
:10070000623061F49FB7F8943881822F80958323FB
:100710008883EC912E2B2C939FBF06C08FB7F89443
:10072000E8812E2B28838FBFDF91CF9108951F93EF
:10073000CF93DF93282F30E0F901EA5BFE4F8491DD
:10074000F901E457FE4FD491F901EE52FE4FC491E6
:10075000CC23C9F0162F81110E940903EC2FF0E081
:10076000EE0FFF1FEE5CFD4FA591B4918FB7F8948B
:10077000111105C09C91ED2FE095E92302C0EC9189
:10078000ED2BEC938FBFDF91CF911F910895CF9305
:10079000DF93282F30E0F901EA5BFE4F8491F901E5
:1007A000E457FE4FD491F901EE52FE4FC491CC2391
:1007B00091F081110E940903EC2FF0E0EE0FFF1F72
:1007C000E85EFD4FA591B491EC91ED2381E090E0BE
:1007D00021F480E002C080E090E0DF91CF910895A5
:1007E000F8940C94FB03EE0FFF1F881F8BBF07903C
:0A07F000F691E02D1994F894FFCF64
:00000001FF
