:100000000C9442010C9473010C9473010C947301D1
:100010000C9473010C9473010C9473010C94730190
:100020000C9473010C9473010C9473010C94730180
:100030000C9473010C9473010C9473010C94730170
:100040000C9473010C9473010C9473010C94730160
:100050000C9473010C9473010C9473010C941E02A4
:100060000C9473010C94CE040C949A050C947301B7
:100070000C9473010C9473010C9473010C94730130
:100080000C9473010C9473010C9473010C94730120
:100090000C9401050C94D9050C9473010C94730114
:1000A0000C9473010C9473010C9473010C94730100
:1000B0000C9473010C9473010C9473010C947301F0
:1000C0000C9473010C9473010C9473010C9434051B
:1000D0000C9418060C9473010C9467050C94570645
:1000E0000C947301E102E402D702DB021B03E80275
:1000F000EC02F202F602FA020003040308031B03F7
:100100000E03120316030C94E4020C94EC020C94FC
:10011000D7020C9404030C942B040C941B040C9431
:1001200016030C941B030C94B1030C94F6020C946C
:10013000F2020C9447040C94DB020C9412030C940E
:10014000FA020C941E070C94E1020C94E8020C9441
:1001500008030C9467040C940E030C9472040C9422
:1001600000030000090A02080B0C0D070603040136
:10017000000000000000000000000000000000007F
:10018000000000000000000000000000000011104E
:100190000F00000000000000000000000000000050
:1001A00000000000000000000102102020080810DC
:1001B00020401020408002010201080402010102D7
:1001C00004081020408080402010080402018004B0
:1001D000020180402010080402010804020101020B
:1001E000040810204080010204081020408005050A
:1001F0000505070508080808020202020A0A08089D
:1002000004040404010101010101010103030303CA
:1002100003030303040707070C0C0C0C0C0C0C0C59
:100220000202020206060606060606060B0B0B0B6A
:100230000B0B0B0B000020002300260029002C00D4
:100240002F00320000010000030106010901000037
:100250002200250028002B002E003100340002016E
:100260000000050108010B01000021002400270007
:100270002A002D00300033000101000004010701B5
:100280000A011E0711241FBECFEFD1E2DEBFCDBF92
:1002900000E00CBF12E0A0E0B2E0EEE3F0E100E02D
:1002A0000BBF02C007900D92AA37B107D9F725E01E
:1002B000AAE7B2E001C01D92AB32B207E1F711E04C
:1002C000C2E4D1E000E006C021970109802FFE01C1
:1002D0000E941508C134D10780E00807A9F70E94E1
:1002E000F3010C94F0070C9400000E94680260E097
:1002F00088E00E941C0361E088E00E94580340E807
:1003000055E260E070E089EE92E00E94960640E8D7
:1003100055E260E070E083E892E00C94960660E0BD
:1003200072E089EE92E00E94090466E172E083E8DF
:1003300092E00E9409046FE272E083E892E00E947A
:1003400009046CE372E083E892E00E94090461E52D
:1003500072E083E892E00C94090463E572E089EEB0
:1003600092E00E94090483E892E00E941B04892B1A
:10037000D1F383E892E00E944704682F89EE92E06F
:100380000E94EE03F0CFCF92DF92EF92FF920F9395
:100390001F93CF93DF937C016C01C0E0D0E08B0111
:1003A00001501109C017D1076CF489EE92E00E9448
:1003B0001B0418161906B4F789EE92E00E94470450
:1003C0008D3061F4CE0DDF1D1882DF91CF911F912A
:1003D0000F91FF90EF90DF90CF900895F6018193F9
:1003E0006F012196DFCFCF93DF93CDB7DEB7A09714
:1003F0000FB6F894DEBF0FBECDBF0E94750188E036
:100400000E948803892B19F40E948F0102C00E9468
:10041000AD0160E270E0CE0101960E94C301BE0111
:100420006F5F7F4F89EE92E00E940904BE016F5F0B
:100430007F4F83E892E00E940904EBCF1F920F9256
:100440000FB60F9211242F933F938F939F93AF93E7
:10045000BF9380917B0290917C02A0917D02B0912C
:100460007E0230917A0223E0230F2D3720F401968B
:10047000A11DB11D05C026E8230F0296A11DB11DC7
:1004800020937A0280937B0290937C02A0937D025A
:10049000B0937E0280917F0290918002A0918102B0
:1004A000B09182020196A11DB11D80937F029093AD
:1004B0008002A0938102B0938202BF91AF919F917D
:1004C0008F913F912F910F900FBE0F901F90189515
:1004D000789484B5826084BD84B5816084BD85B51F
:1004E000826085BD85B5816085BDEEE6F0E08081E6
:1004F00081608083E1E8F0E0108280818260808307
:10050000808181608083E0E8F0E080818160808389
:10051000E1EBF0E0808184608083E0EBF0E08081BB
:1005200081608083E1E9F0E0808182608083808166
:1005300081608083E0E9F0E0808181608083E1EA8E
:10054000F0E0808182608083808181608083E0EA46
:10055000F0E0808181608083E1E2F1E0808182606F
:100560008083808181608083E0E2F1E0808181602E
:100570008083EAE7F0E0808184608083808182600C
:1005800080838081816080838081806880831092F5
:10059000C100089590E0FC013197E131F10508F0C8
:1005A0004AC08827EE58FF4F8F4F0C941508809152
:1005B00080008F7703C0809180008F7D80938000C2
:1005C000089584B58F7702C084B58F7D84BD08956A
:1005D0008091B0008F7703C08091B0008F7D8093B1
:1005E000B0000895809190008F7707C080919000AF
:1005F0008F7D03C080919000877F80939000089545
:100600008091A0008F7707C08091A0008F7D03C0EC
:100610008091A000877F8093A000089580912001A1
:100620008F7707C0809120018F7D03C080912001CA
:10063000877F809320010895CF93DF9390E0FC01A2
:10064000E855FE4F2491FC01E251FE4F849188232E
:1006500061F190E0880F991FFC01E859FD4FC591A9
:10066000D491FC01E25BFD4FA591B491611109C0E9
:100670009FB7F8948881209582238883EC912E235C
:100680000BC0623061F49FB7F8943881822F809557
:1006900083238883EC912E2B2C939FBF06C08FB7AA
:1006A000F894E8812E2B28838FBFDF91CF91089596
:1006B0001F93CF93DF93282F30E0F901EE59FE4FBF
:1006C0008491F901E855FE4FD491F901E251FE4FB2
:1006D000C491CC23C9F0162F81110E94CA02EC2FBD
:1006E000F0E0EE0FFF1FE25BFD4FA591B4918FB7D5
:1006F000F894111105C09C91ED2FE095E92302C0FB
:10070000EC91ED2BEC938FBFDF91CF911F9108956A
:10071000CF93DF93282F30E0F901EE59FE4F8491FB
:10072000F901E855FE4FD491F901E251FE4FC49111
:10073000CC2391F081110E94CA02EC2FF0E0EE0F61
:10074000FF1FEC5CFD4FA591B491EC91ED2381E08E
:1007500090E021F480E002C080E090E0DF91CF9152
:100760000895CF92DF92EF92FF920F931F93CF9352
:10077000DF936C01EB017B01E40EF51E00E010E05D
:10078000CE15DF0561F06991D601ED91FC910190E4
:10079000F081E02DC6011995080F191FF1CFC8018E
:1007A000DF91CF911F910F91FF90EF90DF90CF904D
:1007B00008956115710579F0FB0101900020E9F7BA
:1007C0003197AF01461B570BDC01ED91FC91028084
:1007D000F381E02D199480E090E00895DC01ED9123
:1007E000FC910190F081E02D19940F931F93CF930A
:1007F000DF93EC016DE00E94EE038C016AE0CE0114
:100800000E94EE03800F911FDF91CF911F910F91F6
:1008100008950F931F93CF93DF93EC010E94D903A8
:100820008C01CE010E94F503800F911FDF91CF91C3
:100830001F910F910895FC0124853585F901E05C35
:10084000FF4F80819181329620813181821B930BF1
:100850008F7399270895DC011C96ED91FC911D97EB
:10086000DF01A05CBF4F2D913C91119712968D91A5
:100870009C9111972817390739F08D919C91E80FB9
:10088000F91F808190E008958FEF9FEF0895FC019C
:10089000A485B585FD01E05CFF4F20813181329652
:1008A000808191812817390779F080819181A80F83
:1008B000B91F8C91208131812F5F3F4F2F733327D8
:1008C0003183208390E008958FEF9FEF0895FC011E
:1008D00081A1882329F0A489B5898C9186FFFBCF5B
:1008E00011A208950F931F93CF93DF93FC01A68568
:1008F000B7858D01005C1F4FE801888199810196C1
:100900008F739927AD014E5B5F4FEA0128813981D2
:1009100082179307D1F3E80128813981A20FB31F11
:100920006C93A685B785A05CBF4F11969C938E9360
:10093000A689B7892C9181E090E0078C02C0880FCE
:10094000991F0A94E2F7822B8C9381E081A304889B
:10095000F589E02D80818064808381E090E0DF91E3
:10096000CF911F910F910895FB01E05CFF4F208113
:1009700031812F5F3F4F2F733327DB01AE5BBF4FBA
:100980004D915C912417350741F040815181DB0185
:10099000A40FB51F8C933183208308951F920F926B
:1009A0000FB60F9211240BB60F922F933F934F93D4
:1009B0005F936F937F938F939F93AF93BF93EF93C7
:1009C000FF938091C00082FD07C08091C60067EE52
:1009D00074E00E94B40402C08091C600FF91EF91C0
:1009E000BF91AF919F918F917F916F915F914F9147
:1009F0003F912F910F900BBE0F900FBE0F901F9045
:100A000018951F920F920FB60F9211240BB60F92EA
:100A10002F933F934F935F936F937F938F939F9306
:100A2000AF93BF93EF93FF938091C80082FD07C0FF
:100A30008091CE006FE574E00E94B40402C0809102
:100A4000CE00FF91EF91BF91AF919F918F917F91D8
:100A50006F915F914F913F912F910F900BBE0F902F
:100A60000FBE0F901F9018951F920F920FB60F9206
:100A700011240BB60F922F933F934F935F936F9375
:100A80007F938F939F93AF93BF93EF93FF93809147
:100A9000D00082FD07C08091D60067ED73E00E9410
:100AA000B40402C08091D600FF91EF91BF91AF9145
:100AB0009F918F917F916F915F914F913F912F9176
:100AC0000F900BBE0F900FBE0F901F9018951F92A6
:100AD0000F920FB60F9211240BB60F922F933F93E4
:100AE0004F935F936F937F938F939F93AF93BF9336
:100AF000EF93FF938091300182FD07C08091360112
:100B00006FE473E00E94B40402C080913601FF914B
:100B1000EF91BF91AF919F918F917F916F915F9175
:100B20004F913F912F910F900BBE0F900FBE0F90E2
:100B30001F9018951F920F920FB60F9211240BB6AB
:100B40000F922F933F938F939F93EF93FF93209157
:100B5000E3043091E4048091E5049091E6042817C1
:100B6000390731F48091C1008F7D8093C10014C09A
:100B7000E091E504F091E604ED55FB4F2081809172
:100B8000E5049091E60401968F7399279093E6040B
:100B90008093E5042093C600FF91EF919F918F9180
:100BA0003F912F910F900BBE0F900FBE0F901F9093
:100BB00018951F920F920FB60F9211240BB60F9239
:100BC0002F933F938F939F93EF93FF9320915B0419
:100BD00030915C0480915D0490915E042817390780
:100BE00031F48091C9008F7D8093C90014C0E091D9
:100BF0005D04F0915E04E55EFB4F208180915D0411
:100C000090915E0401968F73992790935E04809370
:100C10005D042093CE00FF91EF919F918F913F91C2
:100C20002F910F900BBE0F900FBE0F901F90189535
:100C30001F920F920FB60F9211240BB60F922F93A3
:100C40003F938F939F93EF93FF932091D303309122
:100C5000D4038091D5039091D6032817390731F436
:100C60008091D1008F7D8093D10014C0E091D50395
:100C7000F091D603ED56FC4F20818091D5039091E1
:100C8000D60301968F7399279093D6038093D5034B
:100C90002093D600FF91EF919F918F913F912F91DB
:100CA0000F900BBE0F900FBE0F901F9018951F92C4
:100CB0000F920FB60F9211240BB60F922F933F9302
:100CC0008F939F93EF93FF9320914B0330914C03AD
:100CD00080914D0390914E032817390731F480918C
:100CE00031018F7D8093310114C0E0914D03F0916B
:100CF0004E03E55FFC4F208180914D0390914E03A0
:100D000001968F73992790934E0380934D03209300
:100D10003601FF91EF919F918F913F912F910F900D
:100D20000BBE0F900FBE0F901F901895CF92DF92C1
:100D3000EF92FF920F931F93CF93DF93EC016A0121
:100D40007B014115514E6105710509F1EC89FD8961
:100D500081E090E008A002C0880F991F0A94E2F792
:100D6000808360E079E08DE390E0A70196010E9426
:100D7000F30789019A0101501109210931093695BA
:100D8000279517950795980101151041A8F0EC8952
:100D9000FD89108260E874E88EE190E0A701960179
:100DA0000E94F307DA01C9010197A109B109B695BB
:100DB000A795979587959C01E889F9893083EA89F9
:100DC000FB89208319A2EE89FF89408181E090E0B0
:100DD0009C010C8C02C0220F331F0A94E2F7242BD3
:100DE0002083EE89FF8940819C010D8C02C0220F77
:100DF000331F0A94E2F7242B2083EE89FF89408178
:100E00009C010E8C02C0220F331F0A94E2F7242BA0
:100E10002083EE89FF8920810F8C02C0880F991FE3
:100E20000A94E2F7809582238083DF91CF911F910E
:100E30000F91FF90EF90DF90CF900895CF92DF92C7
:100E4000EF92FF92E9EEF2E01382128288EEC82E52
:100E500083E0D82EE12CF12CC482D582E682F78281
:100E60006DE672E07183608387EE94E095878487F6
:100E700083EA94E09787868785EC90E0918B808B5E
:100E800084EC90E0938B828B80EC90E0958B848B4C
:100E900081EC90E0978B868B82EC90E0918F808F35
:100EA00086EC90E0938F828F44E0448F33E0358F5F
:100EB00027E0268F95E0978F81E080A3E7ECF2E0B2
:100EC00013821282C482D582E682F78271836083A4
:100ED000AFE5B4E0B587A487ABE1B4E0B787A687F8
:100EE000ADECB0E0B18BA08BACECB0E0B38BA28BDF
:100EF000A8ECB0E0B58BA48BA9ECB0E0B78BA68BC7
:100F0000AAECB0E0B18FA08FAEECB0E0B38FA28FAF
:100F1000448F358F268F978F80A3E5EAF2E0138206
:100F20001282C482D582E682F78271836083A7ED44
:100F3000B3E0B587A487A3E9B3E0B787A687A5ED9B
:100F4000B0E0B18BA08BA4EDB0E0B38BA28BA0ED91
:100F5000B0E0B58BA48BA1EDB0E0B78BA68BA2ED72
:100F6000B0E0B18FA08FA6EDB0E0B38FA28F448F19
:100F7000358F268F978F80A3E3E8F2E013821282E9
:100F8000C482D582E682F782718360836FE473E066
:100F9000758764876BE073E07787668765E371E048
:100FA000718B608B64E371E0738B628B60E371E043
:100FB000758B648B61E371E0778B668B62E371E024
:100FC000718F608F66E371E0738F628F448F358F0E
:100FD000268F978F80A3FF90EF90DF90CF9008959A
:100FE000F8940C941D08A1E21A2EAA1BBB1BFD014C
:100FF0000DC0AA1FBB1FEE1FFF1FA217B307E407F8
:10100000F50720F0A21BB30BE40BF50B661F771F4F
:10101000881F991F1A9469F760957095809590952F
:101020009B01AC01BD01CF010895EE0FFF1F881F8A
:0E1030008BBF0790F691E02D1994F894FFCF36
:10103E004920616D20416C69636520746865207379
:10104E00656E6465720068656C6C6F20426F622C11
:10105E00207468697320697320416C696365004868
:10106E006F772061726520796F753F00446F20792C
:10107E006F752077616E7420746F20636861743FA2
:10108E00002E004920616D20426F62207468652039
:10109E00726563656976657200000000007204B1C6
:0A10AE00031B0447042B0467040031
:00000001FF
