:100000000C9426010C9447010C9447010C94470171
:100010000C9447010C9447010C9447010C94470140
:100020000C9447010C9447010C9447010C94470130
:100030000C9447010C9447010C9447010C94470120
:100040000C9447010C9447010C9447010C94470110
:100050000C9447010C9447010C9447010C949601B1
:100060000C9447010C9447010C9447010C944701F0
:100070000C9447010C9447010C9447010C944701E0
:100080000C9447010C9447010C9447010C944701D0
:100090000C9447010C9447010C9447010C944701C0
:1000A0000C9447010C9447010C9447010C944701B0
:1000B0000C9447010C9447010C9447010C944701A0
:1000C0000C9447010C9447010C9447010C94470190
:1000D0000C9447010C9447010C9447010C94470180
:1000E0000C944701A402A7029A029E02DE02AB0210
:1000F000AF02B502B902BD02C302C702CB02DE02E3
:10010000D102D502D9020C94C7020C94B9020C9406
:10011000A7020C94AB020C94BD020C94D9020C946F
:10012000D1020C94C3020C94CB020C94AF020C9439
:10013000D5020C94B5020C949A020C94A4020C946F
:10014000DE020C949E020000090A02080B0C0D0747
:100150000603040100000000000000000000000091
:10016000000000000000000000000000000000008F
:10017000000011100F00000000000000000000004F
:10018000000000000000000000000000010210203C
:1001900020080810204010204080020102010804BD
:1001A0000201010204081020408080402010080451
:1001B00002018004020180402010080402010804AA
:1001C00002010102040810204080010204081020EE
:1001D0004080050505050705080808080202020217
:1001E0000A0A0808040404040101010101010101D3
:1001F0000303030303030303040707070C0C0C0C9E
:100200000C0C0C0C02020202060606060606060686
:100210000B0B0B0B0B0B0B0B000022002500280017
:100220002B002E00310034000201000005010801FE
:100230000B0100002100240027002A002D003000BF
:10024000330001010000040107010A0111241FBE4F
:10025000CFEFD1E2DEBFCDBF00E00CBF12E0A0E0E7
:10026000B2E0E0EBF6E000E00BBF02C007900D92B9
:10027000AC30B107D9F722E0ACE0B2E001C01D928A
:10028000A531B207E1F70E9468010C944B030C946E
:1002900000000F931F93CF93DF930E942B0202E085
:1002A00012E0C0E0D0E08091000290910102C817F6
:1002B000D9074CF4F80180810E5F1F4F61E00E9466
:1002C000DF022196F0CFDF91CF911F910F9108951A
:1002D000EF92FF920F931F93CF93DF930E944901F8
:1002E000C2E0D2E000E010E08091000290910102B3
:1002F0000817190794F461E088810E941B0364E6E3
:1003000070E080E090E00E94050260E08881229623
:100310000E941B030F5F1F4FE7CF80E090E0DF914B
:10032000CF911F910F91FF90EF9008951F920F9220
:100330000FB60F9211242F933F938F939F93AF93F8
:10034000BF9380910D0290910E02A0910F02B09187
:10035000100230910C0223E0230F2D3720F4019678
:10036000A11DB11D05C026E8230F0296A11DB11DD8
:1003700020930C0280930D0290930E02A0930F0223
:10038000B09310028091110290911202A091130279
:10039000B09114020196A11DB11D8093110290939A
:1003A0001202A0931302B0931402BF91AF919F91D8
:1003B0008F913F912F910F900FBE0F901F90189526
:1003C0003FB7F8948091110290911202A09113020C
:1003D000B091140226B5A89B05C02F3F19F00196D5
:1003E000A11DB11D3FBFBA2FA92F982F8827820FBB
:1003F000911DA11DB11DBC01CD0142E0660F771F0B
:10040000881F991F4A95D1F70895CF92DF92EF92F6
:10041000FF92CF93DF936B017C010E94E001EB011F
:10042000C114D104E104F10479F00E94E0016C1BD5
:100430007D0B683E7340A0F381E0C81AD108E10843
:10044000F108C851DC4FECCFDF91CF91FF90EF90D6
:10045000DF90CF900895789484B5826084BD84B590
:10046000816084BD85B5826085BD85B5816085BDAF
:10047000EEE6F0E0808181608083E1E8F0E01082C8
:10048000808182608083808181608083E0E8F0E009
:10049000808181608083E1EBF0E0808184608083F3
:1004A000E0EBF0E0808181608083E1E9F0E0808131
:1004B00082608083808181608083E0E9F0E08081D8
:1004C00081608083E1EAF0E08081826080838081C6
:1004D00081608083E0EAF0E0808181608083E1E2F6
:1004E000F1E0808182608083808181608083E0E2AE
:1004F000F1E0808181608083EAE7F0E080818460C0
:10050000808380818260808380818160808380811C
:10051000806880831092C100089590E0FC013197BB
:10052000E131F10508F04AC08827EE58FF4F8F4FA0
:100530000C944E03809180008F7703C080918000DF
:100540008F7D80938000089584B58F7702C084B535
:100550008F7D84BD08958091B0008F7703C0809116
:10056000B0008F7D8093B0000895809190008F77C8
:1005700007C0809190008F7D03C080919000877F9D
:100580008093900008958091A0008F7707C080919C
:10059000A0008F7D03C08091A000877F8093A00082
:1005A0000895809120018F7707C0809120018F7D71
:1005B00003C080912001877F809320010895CF930D
:1005C000DF9390E0FC01E457FE4F2491FC01EE52D2
:1005D000FE4F8491882361F190E0880F991FFC0100
:1005E000EE5CFD4FC591D491FC01E85EFD4FA591F5
:1005F000B491611109C09FB7F89488812095822336
:100600008883EC912E230BC0623061F49FB7F8947D
:100610003881822F809583238883EC912E2B2C9315
:100620009FBF06C08FB7F894E8812E2B28838FBF19
:10063000DF91CF9108951F93CF93DF93282F30E060
:10064000F901EA5BFE4F8491F901E457FE4FD49122
:10065000F901EE52FE4FC491CC23C9F0162F81113F
:100660000E948D02EC2FF0E0EE0FFF1FE85EFD4FC1
:10067000A591B4918FB7F894111105C09C91ED2FFD
:10068000E095E92302C0EC91ED2BEC938FBFDF9155
:10069000CF911F910895F8940C945603EE0FFF1F0D
:1006A000881F8BBF0790F691E02D1994F894FFCF27
:0C06B00005000D000C000B000A00090002
:00000001FF
