:100000000C9442010C9473010C9473010C947301D1
:100010000C9473010C9473010C9473010C94730190
:100020000C9473010C9473010C9473010C94730180
:100030000C9473010C9473010C9473010C94730170
:100040000C9473010C9473010C9473010C94730160
:100050000C9473010C9473010C9473010C9463025F
:100060000C9473010C9405060C94D1060C94730146
:100070000C9473010C9473010C9473010C94730130
:100080000C9473010C9473010C9473010C94730120
:100090000C9438060C9410070C9473010C947301A3
:1000A0000C9473010C9473010C9473010C94730100
:1000B0000C9473010C9473010C9473010C947301F0
:1000C0000C9473010C9473010C9473010C946B06E3
:1000D0000C944F070C9473010C949E060C948E079D
:1000E0000C9473017103740367036B03AB03780310
:1000F0007C03820386038A03900394039803AB0373
:100100009E03A203A6030C94A6030C94A2030C94D2
:1001100052050C9441040C9498030C9474030C94B1
:1001200094030C9471030C9455080C9467030C947D
:1001300062050C948A030C947C030C9478030C9451
:1001400086030C94AB030C947E050C946B030C9407
:100150009E030C94A9050C949E050C9482030C94A8
:1001600090030000090A02080B0C0D0706030401A6
:10017000000000000000000000000000000000007F
:10018000000000000000000000000000000011104E
:100190000F00000000000000000000000000000050
:1001A00000000000000000000102102020080810DC
:1001B00020401020408002010201080402010102D7
:1001C00004081020408080402010080402018004B0
:1001D000020180402010080402010804020101020B
:1001E000040810204080010204081020408005050A
:1001F0000505070508080808020202020A0A08089D
:1002000004040404010101010101010103030303CA
:1002100003030303040707070C0C0C0C0C0C0C0C59
:100220000202020206060606060606060B0B0B0B6A
:100230000B0B0B0B000020002300260029002C00D4
:100240002F00320000010000030106010901000037
:100250002200250028002B002E003100340002016E
:100260000000050108010B01000021002400270007
:100270002A002D00300033000101000004010701B5
:100280000A01550811241FBECFEFD1E2DEBFCDBF5A
:1002900000E00CBF12E0A0E0B2E0ECEAF2E100E026
:1002A0000BBF02C007900D92AA32B107D9F724E024
:1002B000AAE2B2E001C01D92A53EB207E1F711E04B
:1002C000C2E4D1E000E006C021970109802FFE01C1
:1002D0000E944C09C134D10780E00807A9F70E94A9
:1002E00004020C9427090C940000EF92FF920F93E4
:1002F0001F93CF93DF930E94F80240E855E260E03D
:1003000070E083EA92E00E94CD070AE212E0C0E0CA
:10031000D2E07E01F80160810E5F1F4FF7018081FE
:10032000F2E0EF0EF11C0E94E80382E004331807AC
:1003300089F78881229661E00E94AC0392E0CA307E
:10034000D907B9F760E086E00E94AC0361E086E07F
:100350000E94E80360E087E00E94AC0361E087E070
:10036000DF91CF911F910F91FF90EF900C94E803D4
:10037000EAE2F2E080E090E020813181232B51F429
:10038000880F991FFC01E65DFD4F81E090E09183AD
:10039000808308951192119201968530910561F73D
:1003A0000895EAE2F2E080E090E021E030E0408170
:1003B00051814130510541F4880F991FFC01E65DE0
:1003C000FD4F11821082089521933193019685305B
:1003D000910569F708950F931F93CF93DF93CAE2B6
:1003E000D2E000E012E068812296F80180810E5F81
:1003F0001F4F0E94E803F2E0C433DF07A1F7DF914B
:10040000CF911F910F9108950E94750100E010E0B7
:10041000C0E0D0E086E00E941804892B31F46AE045
:1004200072E083EA92E00E94990486E00E94180438
:10043000892B49F4C530D10531F00E94B8010E94E2
:10044000EB01C5E0D0E087E00E941804892B49F455
:100450000530110531F00E94D1010E94EB0105E049
:1004600010E0C530D10539F486E00E9418040197E8
:1004700011F4C0E0D0E00530110539F486E00E94A7
:100480001804019711F400E010E08AE2E82E82E0FF
:10049000F82EF701619171917F014AE050E083EA03
:1004A00092E00E944B05F4E3EF16F2E0FF0689F7B5
:1004B00083EA92E00E94850462E370E080E090E0CD
:1004C0000E94D202A7CF1F920F920FB60F92112453
:1004D0002F933F938F939F93AF93BF938091350258
:1004E00090913602A0913702B091380230913402D7
:1004F00023E0230F2D3720F40196A11DB11D05C067
:1005000026E8230F0296A11DB11D2093340280938B
:10051000350290933602A0933702B093380280914F
:10052000390290913A02A0913B02B0913C020196AF
:10053000A11DB11D8093390290933A02A0933B0212
:10054000B0933C02BF91AF919F918F913F912F91BA
:100550000F900FBE0F901F9018953FB7F8948091A1
:10056000390290913A02A0913B02B0913C0226B52B
:10057000A89B05C02F3F19F00196A11DB11D3FBFDB
:10058000BA2FA92F982F8827820F911DA11DB11D69
:10059000BC01CD0142E0660F771F881F991F4A9565
:1005A000D1F70895CF92DF92EF92FF92CF93DF932E
:1005B0006B017C010E94AD02EB01C114D104E10486
:1005C000F10479F00E94AD026C1B7D0B683E734014
:1005D000A0F381E0C81AD108E108F108C851DC4F46
:1005E000ECCFDF91CF91FF90EF90DF90CF90089507
:1005F000789484B5826084BD84B5816084BD85B5FE
:10060000826085BD85B5816085BDEEE6F0E08081C4
:1006100081608083E1E8F0E01082808182608083E5
:10062000808181608083E0E8F0E080818160808368
:10063000E1EBF0E0808184608083E0EBF0E080819A
:1006400081608083E1E9F0E0808182608083808145
:1006500081608083E0E9F0E0808181608083E1EA6D
:10066000F0E0808182608083808181608083E0EA25
:10067000F0E0808181608083E1E2F1E0808182604E
:100680008083808181608083E0E2F1E0808181600D
:100690008083EAE7F0E080818460808380818260EB
:1006A00080838081816080838081806880831092D4
:1006B000C100089590E0FC013197E131F10508F0A7
:1006C0004AC08827EE58FF4F8F4F0C944C098091F9
:1006D00080008F7703C0809180008F7D80938000A1
:1006E000089584B58F7702C084B58F7D84BD089549
:1006F0008091B0008F7703C08091B0008F7D809390
:10070000B0000895809190008F7707C0809190008D
:100710008F7D03C080919000877F80939000089523
:100720008091A0008F7707C08091A0008F7D03C0CB
:100730008091A000877F8093A00008958091200180
:100740008F7707C0809120018F7D03C080912001A9
:10075000877F809320010895CF93DF9390E0FC0181
:10076000E855FE4F2491FC01E251FE4F849188230D
:1007700061F190E0880F991FFC01E859FD4FC59188
:10078000D491FC01E25BFD4FA591B491611109C0C8
:100790009FB7F8948881209582238883EC912E233B
:1007A0000BC0623061F49FB7F8943881822F809536
:1007B00083238883EC912E2B2C939FBF06C08FB789
:1007C000F894E8812E2B28838FBFDF91CF91089575
:1007D0001F93CF93DF93282F30E0F901EE59FE4F9E
:1007E0008491F901E855FE4FD491F901E251FE4F91
:1007F000C491CC23C9F0162F81110E945A03EC2F0B
:10080000F0E0EE0FFF1FE25BFD4FA591B4918FB7B3
:10081000F894111105C09C91ED2FE095E92302C0D9
:10082000EC91ED2BEC938FBFDF91CF911F91089549
:10083000CF93DF93282F30E0F901EE59FE4F8491DA
:10084000F901E855FE4FD491F901E251FE4FC491F0
:10085000CC2391F081110E945A03EC2FF0E0EE0FAF
:10086000FF1FEC5CFD4FA591B491EC91ED2381E06D
:1008700090E021F480E002C080E090E0DF91CF9131
:100880000895CF92DF92EF92FF920F931F93CF9331
:10089000DF936C01EB017B01E40EF51E00E010E03C
:1008A000CE15DF0561F06991D601ED91FC910190C3
:1008B000F081E02DC6011995080F191FF1CFC8016D
:1008C000DF91CF911F910F91FF90EF90DF90CF902C
:1008D00008956115710579F0FB0101900020E9F799
:1008E0003197AF01461B570BDC01ED91FC91028063
:1008F000F381E02D199480E090E00895DC01ED9102
:10090000FC910190F081E02D19940F931F93CF93E8
:10091000DF93EC016DE00E947E048C016AE0CE0161
:100920000E947E04800F911FDF91CF911F910F9144
:1009300008950F931F93CF93DF93EC010E946904F6
:100940008C01CE010E948504800F911FDF91CF9111
:100950001F910F9108958F929F92AF92BF92CF9265
:10096000DF92EF92FF920F931F93CF93DF93CDB758
:10097000DEB7A1970FB6F894DEBF0FBECDBF6C01F6
:10098000142FE52FCB01022F19A2223008F40AE020
:100990007E0121E2E20EF11C802E912CA12CB12CC3
:1009A000612F7E2FA50194010E942A09029F101930
:1009B000112481E0E81AF1081A3014F4105D01C026
:1009C000195CF7011083122FE32FCA01232B242B6C
:1009D000252B31F7B701C6010E946904A1960FB615
:1009E000F894DEBF0FBECDBFDF91CF911F910F9165
:1009F000FF90EF90DF90CF90BF90AF909F908F903F
:100A00000895CF92DF92EF92FF920F931F93CF93AF
:100A1000DF93EC016A017B012115310579F4E8814E
:100A2000F9810190F081E02D642FDF91CF911F912A
:100A30000F91FF90EF90DF90CF9019942A303105FD
:100A4000E9F477FF1AC06DE20E947E048C0144270E
:100A50005527BA014C195D096E097F092AE0CE01BC
:100A60000E94AB04800F911FDF91CF911F910F91D6
:100A7000FF90EF90DF90CF9008952AE0B701A60194
:100A8000CE01DF91CF911F910F91FF90EF90DF90FA
:100A9000CF900C94AB049A01AB01770F660B770BE8
:100AA0000C940105FC0124853585F901E05CFF4FBC
:100AB00080819181329620813181821B930B8F73CB
:100AC00099270895DC011C96ED91FC911D97DF019B
:100AD000A05CBF4F2D913C91119712968D919C91E6
:100AE00011972817390739F08D919C91E80FF91F5C
:100AF000808190E008958FEF9FEF0895FC01A48519
:100B0000B585FD01E05CFF4F208131813296808107
:100B100091812817390779F080819181A80FB91F39
:100B20008C91208131812F5F3F4F2F733327318389
:100B3000208390E008958FEF9FEF0895FC0181A13D
:100B4000882329F0A489B5898C9186FFFBCF11A257
:100B500008950F931F93CF93DF93FC01A685B7856C
:100B60008D01005C1F4FE8018881998101968F7388
:100B70009927AD014E5B5F4FEA01288139818217C9
:100B80009307D1F3E80128813981A20FB31F6C9339
:100B9000A685B785A05CBF4F11969C938E93A689BE
:100BA000B7892C9181E090E0078C02C0880F991FD3
:100BB0000A94E2F7822B8C9381E081A30488F58963
:100BC000E02D80818064808381E090E0DF91CF918F
:100BD0001F910F910895FB01E05CFF4F208131814F
:100BE0002F5F3F4F2F733327DB01AE5BBF4F4D911C
:100BF0005C912417350741F040815181DB01A40F3E
:100C0000B51F8C933183208308951F920F920FB6E6
:100C10000F9211240BB60F922F933F934F935F9334
:100C20006F937F938F939F93AF93BF93EF93FF93B4
:100C30008091C00082FD07C08091C60061EA74E027
:100C40000E94EB0502C08091C600FF91EF91BF9119
:100C5000AF919F918F917F916F915F914F913F9154
:100C60002F910F900BBE0F900FBE0F901F901895F5
:100C70001F920F920FB60F9211240BB60F922F9363
:100C80003F934F935F936F937F938F939F93AF9314
:100C9000BF93EF93FF938091C80082FD07C08091BE
:100CA000CE0069E174E00E94EB0502C08091CE00A5
:100CB000FF91EF91BF91AF919F918F917F916F9134
:100CC0005F914F913F912F910F900BBE0F900FBEF0
:100CD0000F901F9018951F920F920FB60F9211242C
:100CE0000BB60F922F933F934F935F936F937F9326
:100CF0008F939F93AF93BF93EF93FF938091D00017
:100D000082FD07C08091D60061E973E00E94EB0587
:100D100002C08091D600FF91EF91BF91AF919F915A
:100D20008F917F916F915F914F913F912F910F9094
:100D30000BBE0F900FBE0F901F9018951F920F9231
:100D40000FB60F9211240BB60F922F933F934F9330
:100D50005F936F937F938F939F93AF93BF93EF9323
:100D6000FF938091300182FD07C08091360169E0D8
:100D700073E00E94EB0502C080913601FF91EF9174
:100D8000BF91AF919F918F917F916F915F914F91A3
:100D90003F912F910F900BBE0F900FBE0F901F90A1
:100DA00018951F920F920FB60F9211240BB60F9247
:100DB0002F933F938F939F93EF93FF9320919D04E5
:100DC00030919E0480919F049091A00428173907C8
:100DD00031F48091C1008F7D8093C10014C0E091F7
:100DE0009F04F091A004E35AFB4F208180919F045F
:100DF0009091A00401968F7399279093A0048093FB
:100E00009F042093C600FF91EF919F918F913F9196
:100E10002F910F900BBE0F900FBE0F901F90189543
:100E20001F920F920FB60F9211240BB60F922F93B1
:100E30003F938F939F93EF93FF93209115043091ED
:100E4000160480911704909118042817390731F47B
:100E50008091C9008F7D8093C90014C0E091170470
:100E6000F0911804EB52FC4F20818091170490916F
:100E7000180401968F739927909318048093170490
:100E80002093CE00FF91EF919F918F913F912F91F1
:100E90000F900BBE0F900FBE0F901F9018951F92D2
:100EA0000F920FB60F9211240BB60F922F933F9310
:100EB0008F939F93EF93FF9320918D0330918E0337
:100EC00080918F03909190032817390731F4809116
:100ED000D1008F7D8093D10014C0E0918F03F091F9
:100EE0009003E35BFC4F208180918F0390919003EE
:100EF00001968F7399279093900380938F0320938B
:100F0000D600FF91EF919F918F913F912F910F907C
:100F10000BBE0F900FBE0F901F9018951F920F924F
:100F20000FB60F9211240BB60F922F933F938F930E
:100F30009F93EF93FF9320910503309106038091D7
:100F40000703909108032817390731F48091310184
:100F50008F7D8093310114C0E0910703F091080365
:100F6000EB53FD4F20818091070390910803019678
:100F70008F7399279093080380930703209336017A
:100F8000FF91EF919F918F913F912F910F900BBE09
:100F90000F900FBE0F901F901895CF92DF92EF9297
:100FA000FF920F931F93CF93DF93EC016A017B01B4
:100FB0004115514E6105710509F1EC89FD8981E00A
:100FC00090E008A002C0880F991F0A94E2F780837E
:100FD00060E079E08DE390E0A70196010E942A0984
:100FE00089019A0101501109210931093695279586
:100FF00017950795980101151041A8F0EC89FD8916
:10100000108260E874E88EE190E0A70196010E94EA
:101010002A09DA01C9010197A109B109B695A79575
:10102000979587959C01E889F9893083EA89FB893E
:10103000208319A2EE89FF89408181E090E09C0124
:101040000C8C02C0220F331F0A94E2F7242B20835A
:10105000EE89FF8940819C010D8C02C0220F331F55
:101060000A94E2F7242B2083EE89FF8940819C01BA
:101070000E8C02C0220F331F0A94E2F7242B208328
:10108000EE89FF8920810F8C02C0880F991F0A9476
:10109000E2F7809582238083DF91CF911F910F919A
:1010A000FF90EF90DF90CF900895CF92DF92EF9274
:1010B000FF92E3EAF2E01382128288EEC82E83E008
:1010C000D82EE12CF12CC482D582E682F7826DE124
:1010D00072E07183608381EA94E0958784878DE56F
:1010E00094E09787868785EC90E0918B808B84ECE9
:1010F00090E0938B828B80EC90E0958B848B81ECDD
:1011000090E0978B868B82EC90E0918F808F86ECBD
:1011100090E0938F828F44E0448F33E0358F27E057
:10112000268F95E0978F81E080A3E1E8F2E01382BB
:101130001282C482D582E682F78271836083A9E13C
:10114000B4E0B587A487A5EDB3E0B787A687ADEC7B
:10115000B0E0B18BA08BACECB0E0B38BA28BA8EC71
:10116000B0E0B58BA48BA9ECB0E0B78BA68BAAEC52
:10117000B0E0B18FA08FAEECB0E0B38FA28F448F00
:10118000358F268F978F80A3EFE5F2E013821282CE
:10119000C482D582E682F78271836083A1E9B3E0DD
:1011A000B587A487ADE4B3E0B787A687A5EDB0E027
:1011B000B18BA08BA4EDB0E0B38BA28BA0EDB0E01F
:1011C000B58BA48BA1EDB0E0B78BA68BA2EDB0E000
:1011D000B18FA08FA6EDB0E0B38FA28F448F358F73
:1011E000268F978F80A3EDE3F2E013821282C482F0
:1011F000D582E682F7827183608369E073E0758748
:10120000648765EC72E07787668765E371E0718BD0
:10121000608B64E371E0738B628B60E371E0758BCC
:10122000648B61E371E0778B668B62E371E0718FB1
:10123000608F66E371E0738F628F448F358F268FE6
:10124000978F80A3FF90EF90DF90CF900895F89450
:101250000C945409A1E21A2EAA1BBB1BFD010DC060
:10126000AA1FBB1FEE1FFF1FA217B307E407F50756
:1012700020F0A21BB30BE40BF50B661F771F881F32
:10128000991F1A9469F760957095809590959B01C8
:10129000AC01BD01CF010895EE0FFF1F881F8BBF6A
:0C12A0000790F691E02D1994F894FFCF10
:1012AC0009000A000B000C000D00427574746F6E7F
:1012BC0020707265737365640000000000A905411D
:0A12CC000452057E0562059E050030
:00000001FF
