:100000000C9426010C9447010C9447010C94470171
:100010000C9447010C9447010C9447010C94470140
:100020000C9447010C9447010C9447010C94470130
:100030000C9447010C9447010C9447010C94470120
:100040000C9447010C9447010C9447010C94470110
:100050000C9447010C9447010C9447010C94D10176
:100060000C9447010C9447010C9447010C944701F0
:100070000C9447010C9447010C9447010C944701E0
:100080000C9447010C9447010C9447010C944701D0
:100090000C9447010C9447010C9447010C944701C0
:1000A0000C9447010C9447010C9447010C944701B0
:1000B0000C9447010C9447010C9447010C944701A0
:1000C0000C9447010C9447010C9447010C94470190
:1000D0000C9447010C9447010C9447010C94470180
:1000E0000C944701C302C602B902BD02FD02CA0256
:1000F000CE02D402D802DC02E202E602EA02FD02EB
:10010000F002F402F8020C94E2020C94D4020C9473
:10011000EA020C94F4020C94FD020C94C6020C94B6
:10012000F0020C94F8020C94DC020C94BD020C94C6
:10013000D8020C94CA020C94CE020C94C3020C9404
:10014000B9020C94E6020000090A02080B0C0D0724
:100150000603040100000000000000000000000091
:10016000000000000000000000000000000000008F
:10017000000011100F00000000000000000000004F
:10018000000000000000000000000000010210203C
:1001900020080810204010204080020102010804BD
:1001A0000201010204081020408080402010080451
:1001B00002018004020180402010080402010804AA
:1001C00002010102040810204080010204081020EE
:1001D0004080050505050705080808080202020217
:1001E0000A0A0808040404040101010101010101D3
:1001F0000303030303030303040707070C0C0C0C9E
:100200000C0C0C0C02020202060606060606060686
:100210000B0B0B0B0B0B0B0B000022002500280017
:100220002B002E00310034000201000005010801FE
:100230000B0100002100240027002A002D003000BF
:10024000330001010000040107010A0111241FBE4F
:10025000CFEFD1E2DEBFCDBF00E00CBF12E0A0E0E7
:10026000B2E0EEE6F8E000E00BBF02C007900D92AE
:10027000A430B107D9F722E0A4E0B2E001C01D929A
:10028000AF30B207E1F70E946A030C94B8030C94F4
:10029000000061E0809100020C94FE024F925F9298
:1002A0006F927F928F929F92AF92BF92CF92DF9286
:1002B000EF92FF92CF93DF936C01EC0197FD2196B3
:1002C000D595C79528EE33E0DB010E94F2032B01A0
:1002D0003C01812C912C54010D2C000CEE08FF08E0
:1002E00084149504A604B704ACF461E08091000284
:1002F0000E943A03CE010E941B0260E0809100023E
:100300000E943A03CE010E941B028C0C9D1CAE1C65
:10031000BF1CE6CFDF91CF91FF90EF90DF90CF90A1
:10032000BF90AF909F908F907F906F905F904F9015
:100330000895AF92BF92CF92DF92EF92FF920F9308
:100340001F93809104020E948702BC01990F880BC1
:10035000990B1F921F9227E22F9320E12F9324E6FF
:10036000A22EB12CC12CD12CEE24EA9413E0F12E54
:1003700000E010E020E030E0A9010E947703DC01FA
:10038000CB010F900F900F900F9064EF71E01F91D1
:100390000F91FF90EF90DF90CF90BF90AF900C94B3
:1003A0004E011F920F920FB60F9211242F933F937D
:1003B0008F939F93AF93BF93809107029091080210
:1003C000A0910902B0910A023091060223E0230FA6
:1003D0002D3720F40196A11DB11D05C026E8230F7D
:1003E0000296A11DB11D20930602809307029093EF
:1003F0000802A0930902B0930A0280910B02909127
:100400000C02A0910D02B0910E020196A11DB11D2A
:1004100080930B0290930C02A0930D02B0930E02F6
:10042000BF91AF919F918F913F912F910F900FBEF0
:100430000F901F901895019739F0880F991F880F1A
:10044000991F02970197F1F70895789484B5826017
:1004500084BD84B5816084BD85B5826085BD85B568
:10046000816085BDEEE6F0E0808181608083E1E817
:10047000F0E010828081826080838081816080834F
:10048000E0E8F0E0808181608083E1EBF0E0808152
:1004900084608083E0EBF0E0808181608083E1E92B
:1004A000F0E0808182608083808181608083E0E9E8
:1004B000F0E0808181608083E1EAF0E08081826009
:1004C0008083808181608083E0EAF0E080818160C8
:1004D0008083E1E2F1E080818260808380818160BD
:1004E0008083E0E2F1E0808181608083EAE7F0E0F0
:1004F000808184608083808182608083808181604C
:1005000080838081806880831092C1000895863343
:1005100008F0865390917B00282F2870977F922BAC
:1005200090937B0087702091020290E4299F9001B4
:100530001124822B80937C0080917A0080648093C8
:100540007A0080917A0086FDFCCF8091780020911E
:10055000790090E0922B089590E0FC013197E13111
:10056000F10508F04AC08827EE58FF4F8F4F0C94D2
:10057000EA03809180008F7703C0809180008F7D97
:1005800080938000089584B58F7702C084B58F7DF5
:1005900084BD08958091B0008F7703C08091B00032
:1005A0008F7D8093B0000895809190008F7707C071
:1005B000809190008F7D03C080919000877F809311
:1005C000900008958091A0008F7707C08091A000CF
:1005D0008F7D03C08091A000877F8093A000089545
:1005E000809120018F7707C0809120018F7D03C00B
:1005F00080912001877F809320010895CF93DF931E
:1006000090E0FC01E457FE4F2491FC01EE52FE4FB6
:100610008491882361F190E0880F991FFC01EE5CC2
:10062000FD4FC591D491FC01E85EFD4FA591B491B9
:10063000611109C09FB7F89488812095822388832F
:10064000EC912E230BC0623061F49FB7F89438818F
:10065000822F809583238883EC912E2B2C939FBF30
:1006600006C08FB7F894E8812E2B28838FBFDF91C7
:10067000CF9108951F93CF93DF93282F30E0F90196
:10068000EA5BFE4F8491F901E457FE4FD491F901E2
:10069000EE52FE4FC491CC23C9F0162F81110E9457
:1006A000AC02EC2FF0E0EE0FFF1FE85EFD4FA591CE
:1006B000B4918FB7F894111105C09C91ED2FE0957E
:1006C000E92302C0EC91ED2BEC938FBFDF91CF912A
:1006D0001F9108950E9425020E944901C0E0D0E0C8
:1006E0000E9499012097E1F30E940000F9CF4F92F8
:1006F0005F926F927F92AF92BF92CF92DF92EF9212
:10070000FF920F931F93CF93DF93CDB7DEB72901ED
:100710003A019B01AC0124193509460957098A8918
:100720009B89AC89BD89BC01CD016A197B098C0903
:100730009D090E94BB03A8019701241935094609A8
:1007400057090E94CB03CA01B9016A0D7B1D8C1D9C
:100750009D1DDF91CF911F910F91FF90EF90DF9042
:10076000CF90BF90AF907F906F905F904F90089523
:10077000F8940C943504DB018F939F930E94F90346
:10078000BF91AF91A29F800D911DA39F900DB29F2D
:10079000900D11240895052E97FB1EF400940E94DD
:1007A000E20357FD07D00E94040407FC03D04EF477
:1007B0000C94E20350954095309521953F4F4F4F53
:1007C0005F4F089590958095709561957F4F8F4FFD
:1007D0009F4F0895EE0FFF1F881F8BBF0790F69164
:1007E000E02D19940E942604B7FF0895821B930BF5
:1007F00008950E942604A59F900DB49F900DA49F7C
:10080000800D911D11240895A1E21A2EAA1BBB1B75
:10081000FD010DC0AA1FBB1FEE1FFF1FA217B307CC
:10082000E407F50720F0A21BB30BE40BF50B661FE2
:10083000771F881F991F1A9469F7609570958095A6
:1008400090959B01AC01BD01CF010895A29FB0011D
:10085000B39FC001A39F700D811D1124911DB29FF4
:0E086000700D811D1124911D0895F894FFCF95
:04086E00090001007C
:00000001FF
